S00F000064656661756C742E7372656330
S11300000C947A000C9499000C9499000C94990027
S11300100C9499000C9499000C9499000C949900F8
S11300200C9499000C9499000C9499000C949900E8
S11300300C9499000C9499000C9499000C949900D8
S11300400C9499000C9499000C9499000C949900C8
S11300500C9499000C9499000C9499000C949900B8
S11300600C9499000C9499000C9499000C949900A8
S11300700C9499000C9499000C9499000C94990098
S11300800C9499000C9499000C9499000C94990088
S11300900C9499000C9499000C9499000C94990078
S11300A00C9499000C9499000C9499000C94990068
S11300B00C9499000C9499000C9499000C94990058
S11300C00C9499000C9499000C9499000C94990048
S11300D00C9499000C94A3030C94CD030C949900F4
S11300E00C9499000C9499000C9499000C94990028
S11300F00C94990011241FBECFEFCDBFDFE7DEBF04
S113010011E4A0E0B0E4EEEFF8E100E00BBF02C0C0
S113011007900D92A839B107D9F722E4A8E9B1E410
S113012001C01D92AD3BB207E1F70E940A040C9492
S11301307D0C0C940000009731F0FC0112821382B4
S11301401482158208950E942E09FC01892B51F016
S113015081E042815381248135814217530709F09C
S113016080E008950E942E09EF92FF920F931F934F
S1130170CF93DF938C017B01892BE9F06230710509
S1130180D0F088E090E00E940908EC010097A9F003
S113019008831983EE82FF820E949B00CE010E9495
S11301A0A500882361F0CE01DF91CF911F910F91BB
S11301B0FF90EF9008950E942E090E942E090E943C
S11301C02E09EF92FF920F931F93CF93DF93EC01CD
S11301D07B01009731F1672B21F108811981011509
S11301E01105F9F00E94A500811120C08C819D8128
S11301F0080F191FF8018081F70180838C819D818C
S113020001962E813F812817390769F08C839D83DD
S113021090E080E0DF91CF911F910F91FF90EF90DC
S113022008950E942E0990E080E0F0CF8FEF9FEFB9
S1130230F1CFFC01228133812F5F3F4F868197816B
S11302408217930741F081E0448155814217530797
S113025009F080E0089530E020E0F5CFFF920F939D
S11302601F93CF93DF93EC01F62E009709F10881D9
S1130270198101151105E1F00E94190181111DC0B8
S11302808A819B81080F191FF801F0828A819B8162
S113029001962E813F812817390761F08A839B8359
S11302A090E080E0DF91CF911F910F91FF9008952E
S11302B00E942E0990E080E0F1CF8FEF9FEFF2CF04
S11302C00F931F93CF93DF931F92CDB7DEB70097A1
S11302D081F06115710579F08B01BE016F5F7F4F6D
S11302E00E94E100892B71F48981F801808381E007
S11302F003C080E001C080E00F90DF91CF911F9197
S11303000F91089580E0F8CFBC018091EC41909169
S1130310ED410E94600108952091EC413091ED413E
S11303202115310521F0682FC9010E942E0108957D
S1130330BC018091EE419091EF410E9460010895CB
S11303408F929F92AF92BF92CF92DF92EF92FF92E1
S11303500F931F93CF93DF934A015B01882391F09E
S1130360813009F44DC0823009F44FC0833009F460
S113037052C0843009F055C081E080938104C0E804
S1130380D8E005C081E080930104C0E0D8E0C90151
S1130390B8010E940E0720E030E040E852E40E94D9
S11303A09C076B017C01C501B4010E940E0720E08B
S11303B030E040E851E40E949C079B01AC01C70176
S11303C0B6010E946D0620E030E040E05FE30E9449
S11303D001060E94DF066887798783E08F838E8118
S11303E0806C8E83CE01DF91CF911F910F91FF908E
S11303F0EF90DF90CF90BF90AF909F908F90089533
S113040080934104C0E2D8E0C2CF81E08093A1048C
S1130410C0E4D8E0BCCF81E080932104C0E6D8E0FA
S1130420B6CFD0E0C0E0B3CFEF92FF920F931F930B
S1130430CF93DF93E114F104B1F19EE0E6E0F0E440
S1130440D70101900D929A95E1F7E7010E94A0016E
S11304508C879D878093EA419093EB4160E470E040
S113046080E392E40E94B4008093EE419093EF41C4
S113047060E470E080EF91E40E94B4008093EC416A
S11304809093ED41E091EA41F091EB41309719F0FE
S1130490858180688583CE01DF91CF911F910F9173
S11304A0FF90EF900895E7EBF2E4A6E0B0E4A283B6
S11304B0B383A083B183A483B583ED01C7CFFC01CB
S11304C0948195FFFDCF08950F931F93CF93C82F69
S11304D08B01873081F08A30D9F0F80104851585C5
S11304E0C8010E945F02F801C28390E080E0CF91CE
S11304F01F910F9108952091BB423091BC4247E077
S113050050E061E070E084E190E40E945909EDCF8D
S11305108DE00E946402E1CFFC0194819923ECF701
S1130520818182FD05C086FD07C0808190E0089529
S113053080818EEF9FEF089580818FEF9FEF089564
S11305409F92AF92BF92CF92DF92EF92FF920F935E
S11305501F93CF93DF932091E8413091E941232BFE
S1130560D9F0E091E841F091E941CF0101968093FF
S1130570E8419093E94180818A3009F4D1C090E048
S1130580DF91CF911F910F91FF90EF90DF90CF906B
S1130590BF90AF909F900895EC0108E911E468942E
S11305A0992495F868010F2EF7E9AF2EF1E4BF2ED8
S11305B0F02D1DC08AE0F8018083BE010E94640210
S11305C088E991E48093E8419093E941CACF892D69
S11305D0F1E4073E1F0709F440C078019FEFE91AD0
S11305E0F90AF8018083BE010E94640287018C85A8
S11305F09D850E948C028D30E9F28A30D9F28930CF
S113060031F390EE980F9F3518F3803A08F7823152
S113061009F46CC048F1873109F441C08F3751F1B6
S1130620853129F781E40839180709F300F3BE017D
S113063088E00E946402BE01892D0E946402BE010A
S113064088E00E94640201501109F1E408391F078F
S113065071F785010F5F1F4FCACFBE0187E00E946B
S1130660640207EE11E4C3CF833009F45EC088301E
S113067009F0BDCF91E40839190709F008F4B7CFA0
S1130680BE0188E00E946402BE01892D0E946402BA
S1130690BE0188E00E94640201501109A8CFF1E470
S11306A008391F0709F008F4A2CFF80131978081B7
S11306B0803209F49CCF780181E0E81AF108BE0188
S11306C088E00E946402BE01892D0E946402BE017A
S11306D088E00E9464028701EC14FD0409F487CFCA
S11306E0F70182917F01803251F781CFBE018DE005
S11306F00E946402E1E408391E0709F008F477CF88
S11307000F2EF8E9EF2EF1E4FF2EF02DBE01F701D4
S113071081917F010E9464020E151F05B9F767CF0E
S11307201092E8411092E9412ACF8FEF9FEF28CF32
S1130730E0E6F4E08FEF81838683E0E4F4E080EC8C
S11307408183868308951F920F920FB60F9211240E
S11307500BB60F922F933F934F935F936F937F93B7
S11307608F939F93AF93BF93EF93FF938091600810
S11307700E948C01FF91EF91BF91AF919F918F9156
S11307807F916F915F914F913F912F910F900BBE8D
S11307900F900FBE0F901F9018951F920F920FB6D7
S11307A00F9211240BB60F922F933F934F935F93A5
S11307B06F937F938F939F93AF93BF93EF93FF9325
S11307C0CF93DF931F92CDB7DEB7CE0101960E947F
S11307D0980181111BC0E0E6F8E085818F7D858357
S11307E00F90DF91CF91FF91EF91BF91AF919F91C6
S11307F08F917F916F915F914F913F912F910F90C6
S11308000BBE0F900FBE0F901F9018958981809397
S11308106208E6CFCF93DF931F92CDB7DEB788EDA2
S113082084BFE0E6F0E095E090A384BF83E080839A
S11308300E949803F12CE12C00E014E224EF30E054
S113084040E855E260E070E083E00E94140278948E
S11308508CE190E40E94B1098BE490E40E94B10918
S113086081E0809364048FE39CE90197F1F700C071
S11308700000712C6894FF24F1F8EE24E3940AE05C
S113088010E00F2EFDE72F2EF0E43F2EF02DAA24CA
S1130890A394B12C0F2EF0E6CF2EF4E0DF2EF02D32
S11308A00F2EF4EF5F2EF02D662463946CC13F92FB
S11308B02F920E94970981E08093B1420F900F908C
S11308C06BC1898190E00E94AB098091B242813072
S11308D071F1D8F0823009F484C0833009F062C128
S11308E089818A3009F4CAC08D3009F4C7C0E09107
S11308F0B042EF3308F056C191E09E0F9093B0429E
S1130900F0E0E059FD4B80834DC181E08093B24219
S113091090E4E0E7F2E411929A95E9F71092B1427B
S11309208093B0428981E0E7F2E480833BC189810E
S11309308A3081F08D3071F0E091B042EF3308F0ED
S113094031C191E09E0F9093B042F0E0E059FD4B2D
S1130950808328C18091B042882309F423C1E0E751
S1130960F2E49081892F8F7D863499F0803529F1C6
S11309701F929F9385EE90E49F938F930E94970913
S11309801092B2421092B1420F900F900F900F90BC
S113099009C188EB90E49F938F930E94970982E0AA
S11309A08093B2421092B04280E4E0E7F2E4119204
S11309B08A95E9F70F900F90F5C081ED90E49F932D
S11309C08F930E94970983E08093B2421092B042C1
S11309D080E4E0E7F2E411928A95E9F70F900F9032
S11309E0E1C089818A3081F08D3071F0E091B042AC
S11309F0EF3308F0D7C091E09E0F9093B042F0E03F
S1130A00E059FD4B8083CEC08091B042882309F425
S1130A10C9C080E792E40E943309282F392FFF24AC
S1130A20F394882341F0F82EFAE0F81720F40F2EFF
S1130A30FAE0FF2EF02D8F2C912C2815390589F41E
S1130A409F928F9282E491E49F938F930E949709DF
S1130A501092B2421092B1420F900F900F900F90EB
S1130A60A1C01F92FF9280E291E49F938F930E9412
S1130A7097090F900F900F900F90E2CF8091B042A2
S1130A80882309F48FC080E792E40E943309782E0A
S1130A90F7E0F81720F40F2EF7E07F2EF02D872CC7
S1130AA0912C88159905D1F4C501072C02C0880F33
S1130AB0991F0A94E2F7F60184839F928F928EE73E
S1130AC091E49F938F930E9497091092B2421092DF
S1130AD0B1420F900F900F900F9064C01F927F92BD
S1130AE08FE591E49F938F930E9497090F900F9045
S1130AF00F900F90D9CFB501EE2039F127E02715DB
S1130B00A8F0C501072C02C0880F991F0A94E2F7C8
S1130B10F60184838FE39CE90197F1F700C000009C
S1130B20065F1F4F0617170708F52DC08FEFF60154
S1130B3086838FE39CE90197F1F700C00000065F0C
S1130B401F4F06171707D8F41EC08FEFF6018683D0
S1130B508FE39CE90197F1F700C00000065F1F4F87
S1130B600617170780F097E0971548F0C501072C82
S1130B7002C0880F991F0A94E2F7F601878381E087
S1130B80E82610E000E08091B242811105C0809116
S1130B90B142882309F48BCECE0101960E948401D0
S1130BA081118FCE652D762DFF2009F4A5CF8F2DD1
S1130BB0869590E08C509E4F6F2D70E00E94EC055E
S1130BC06115710509F497CF653FF1E07F0708F4DB
S1130BD093CF652D762D90CFAA1BBB1B51E107C087
S1130BE0AA1FBB1FA617B70710F0A61BB70B881FB9
S1130BF0991F5A95A9F780959095BC01CD01089548
S1130C005058BB27AA270E9418060C9462070E941A
S1130C10540738F00E945B0720F039F49F3F19F421
S1130C2026F40C9451070EF4E095E7FB0C944B0763
S1130C30E92F0E94730758F3BA17620773078407F2
S1130C40950720F079F4A6F50C9495070EF4E09539
S1130C500B2EBA2FA02D0B01B90190010C01CA0172
S1130C60A0011124FF27591B99F0593F50F4503E1D
S1130C7068F11A16F040A22F232F342F4427585F0F
S1130C80F3CF469537952795A795F0405395C9F727
S1130C907EF41F16BA0B620B730B840BBAF09150DF
S1130CA0A1F0FF0FBB1F661F771F881FC2F70EC07E
S1130CB0BA0F621F731F841F48F487957795679551
S1130CC0B795F7959E3F08F0B0CF9395880F08F03D
S1130CD09927EE0F9795879508950E9481060C94A5
S1130CE062070E945B0758F00E94540740F029F401
S1130CF05F3F29F00C944B0751110C9496070C9408
S1130D0051070E94730768F39923B1F3552391F3B4
S1130D10951B550BBB27AA2762177307840738F066
S1130D209F5F5F4F220F331F441FAA1FA9F335D0C3
S1130D300E2E3AF0E0E832D091505040E695001C77
S1130D40CAF72BD0FE2F29D0660F771F881FBB1F31
S1130D50261737074807AB07B0E809F0BB0B802D0F
S1130D60BF01FF2793585F4F3AF09E3F510578F03B
S1130D700C944B070C9496075F3FE4F3983ED4F32E
S1130D80869577956795B795F7959F5FC9F7880F0F
S1130D90911D9695879597F90895E1E0660F771F61
S1130DA0881FBB1F621773078407BA0720F0621BF2
S1130DB0730B840BBA0BEE1F88F7E09508950E941D
S1130DC07B0788F09F5798F0B92F9927B751B0F057
S1130DD0E1F0660F771F881F991F1AF0BA95C9F7BB
S1130DE014C0B13091F00E949507B1E008950C94BD
S1130DF09507672F782F8827B85F39F0B93FCCF370
S1130E00869577956795B395D9F73EF49095809537
S1130E10709561957F4F8F4F9F4F0895E89409C057
S1130E2097FB3EF490958095709561957F4F8F4F19
S1130E309F4F9923A9F0F92F96E9BB279395F6952F
S1130E40879577956795B795F111F8CFFAF4BB0FAD
S1130E5011F460FF1BC06F5F7F4F8F4F9F4F16C011
S1130E60882311F096E911C0772321F09EE8872F9B
S1130E70762F05C0662371F096E8862F70E060E057
S1130E802AF09A95660F771F881FDAF7880F9695D0
S1130E90879597F9089597F99F6780E870E060E077
S1130EA008959FEF80EC089500240A9416161706FF
S1130EB018060906089500240A9412161306140647
S1130EC005060895092E0394000C11F4882352F0AA
S1130ED0BB0F40F4BF2B11F460FF04C06F5F7F4F62
S1130EE08F4F9F4F089557FD9058440F551F59F049
S1130EF05F3F71F04795880F97FB991F61F09F3F03
S1130F0079F087950895121613061406551FF2CF2B
S1130F104695F1DF08C0161617061806991FF1CF7B
S1130F2086957105610508940895E894BB276627A2
S1130F307727CB0197F908950E94AF070C946207B5
S1130F400E94540738F00E945B0720F0952311F0AB
S1130F500C944B070C94510711240C9496070E948F
S1130F60730770F3959FC1F3950F50E0551F629F6F
S1130F70F001729FBB27F00DB11D639FAA27F00DEE
S1130F80B11DAA1F649F6627B00DA11D661F829F15
S1130F902227B00DA11D621F739FB00DA11D621FFA
S1130FA0839FA00D611D221F749F3327A00D611D17
S1130FB0231F849F600D211D822F762F6A2F1124F9
S1130FC09F5750409AF0F1F088234AF0EE0FFF1F2C
S1130FD0BB1F661F771F881F91505040A9F79E3F83
S1130FE0510580F00C944B070C9496075F3FE4F393
S1130FF0983ED4F3869577956795B795F795E795D9
S11310009F5FC1F7FE2B880F911D9695879597F9E1
S113101008950F931F93CF93DF938230910510F4BB
S113102082E090E0E091B542F091B64230E020E0F9
S1131030B0E0A0E0309799F42115310509F44AC0D5
S1131040281B390B24303105D8F58A819B81611521
S1131050710589F1FB0182839383FE0111C04081F4
S113106051810281138148175907E0F04817590745
S113107099F4109761F012960C93129713961C939F
S11310803296CF01DF91CF911F910F910895009374
S1131090B5421093B642F4CF2115310551F04217F1
S11310A0530738F0A901DB019A01BD01DF01F80102
S11310B0C1CFEF01F9CF8093B5429093B642CDCF23
S11310C0FE01E20FF31F819391932250310928838B
S11310D03983D7CF2091B3423091B442232B41F4CA
S11310E020910240309103402093B3423093B442A4
S11310F020910040309101402115310541F42DB774
S11311003EB74091044050910540241B350BE091BB
S1131110B342F091B442E217F307A0F42E1B3F0B45
S11311202817390778F0AC014E5F5F4F2417350755
S113113048F04E0F5F1F4093B3425093B4428193E3
S113114091939FCFF0E0E0E09CCFCF93DF930097A3
S1131150E9F0FC01329712821382A091B542B0915A
S1131160B642ED0130E020E01097A1F420813181F6
S1131170820F931F2091B3423091B442281739074C
S113118009F061C0E093B342F093B442DF91CF9190
S11311900895EA01CE17DF07E8F54A815B819E01D5
S11311A041155105B1F7E901EA83FB83499159914E
S11311B0C40FD51FEC17FD0761F48081918102965D
S11311C0840F951FE90188839983828193818A839F
S11311D09B83F0E0E0E012968D919C911397009729
S11311E0B9F52D913C911197CD010296820F931F71
S11311F02091B3423091B4422817390739F6309719
S113120051F51092B5421092B642A093B342B093F6
S1131210B442BCCFC283D38340815181840F951FD4
S1131220C817D90761F44E5F5F4F88819981480FD1
S1131230591F408351838A819B8182839383211523
S1131240310509F0B0CFE093B542F093B6429ECF9A
S1131250FD01DC01C0CF12821382D7CF81E090E080
S1131260F8940C947D0CFC0188279927E89421912B
S11312702032E9F3293010F02E30C8F32B3241F03C
S11312802D3239F4689404C00E945109820F911DD3
S1131290219120532A30C0F31EF4909581959F4FDD
S11312A008957AE0979F902D879F802D910D1124AA
S11312B008958F929F92AF92BF92CF92DF92EF9256
S11312C0FF920F931F93CF93DF935B014A01790140
S11312D0D90113962C91D0E0C0E021FF1AC0C815A3
S11312E0D905B9F08C016C01CA0CDB1C0CC00F5F72
S11312F01F4FD7011896ED91FC91B701DC018C9139
S11313000995892B31F4C8010C151D0581F7219627
S1131310E6CFCE01DF91CF911F910F91FF90EF9017
S1131320DF90CF90BF90AF909F908F900895CF9310
S1131330DF93CDB7DEB7AE014B5F5F4FFA0161912A
S11313407191AF018091B9429091BA420E94DC0937
S1131350DF91CF9108956091B9427091BA420C9493
S1131360EF0B0F931F93CF93DF93E091B942F0916A
S1131370BA422381EC0110E000E021FD08C00FEF28
S11313801FEF14C00995892B11F00FEF1FEF8991FE
S11313906091B9427091BA42DB011896ED91FC91CB
S11313A08111F0CF8AE00995892B49F7C801DF91B3
S11313B0CF911F910F9108952F923F924F925F9278
S11313C06F927F928F929F92AF92BF92CF92DF9251
S11313D0EF92FF920F931F93CF93DF93CDB7DEB7B6
S11313E02B97CDBFDEBF7C013B018A01FC01168235
S11313F01782838181FFDAC1CE0101965C01F70176
S11314009381F30193FD859193FF81913F0188239B
S113141009F453C1853239F493FD859193FF819189
S11314203F01853229F4B70190E00E94EF0BE7CF2A
S1131430912C212C312CFFE1F31538F08B3211F172
S113144090F4803209F1833229F137FC3CC020ED5D
S1131450280F2A3050F536FE20C08AE0989E200DD1
S11314601124922E06C08D3291F0803371F7689466
S113147030F8F30193FD859193FF81913F01811130
S1131480DACF21C0689431F8689432F8F2CF6894C6
S113149033F8EFCF689434F8ECCFEAE02E9E200DB9
S11314A01124222E689435F8E4CF8E3229F436FCC8
S11314B004C1689436F8DDCF8C3619F4689437F893
S11314C0D8CF8836B1F2982F9F7D95549330E0F0B1
S11314D08336A1F18337C1F1833509F063C0280154
S11314E0F2E04F0E511CF801C080D180692D70E0EC
S11314F036FC02C06FEF7FEFC6010E94D90B4C018E
S1131500689437F882010AC00C5F1F4FFFE3F98328
S113151088248394912C6501E89437F833FE2DC018
S1131520522C8114910471F5552009F468CFB70148
S113153080E290E00E94EF0B5A94F6CFF80180818C
S113154089830E5F1F4FE4CF2801F2E04F0E511C38
S1131550F801C080D180692D70E036FC02C06FEFC5
S11315607FEFC6010E94E40B4C018201D5CFB70185
S113157080E290E00E94EF0B2A942814190409F0E9
S1131580B0F7CECFF60137FC859137FE81916F011C
S1131590B70190E00E94EF0B51105A94F1E08F1ABA
S11315A09108BFCF843619F0893609F077C0F80165
S11315B037FE6BC060817181828193810C5F1F4F04
S11315C0F32DFF763F2E97FF09C090958095709577
S11315D061957F4F8F4F9F4F689437F82AE030E032
S11315E0A5010E941F0CC82ECA188C2C432C36FE51
S11315F00CC0E89440F8C91440F434FE05C032FC31
S113160003C0F32DFE7E4F2E892C44FEA7C0FE019D
S1131610EC0DF11D8081803309F099C0242D297EC1
S1131620422E842D8870582E43FCA7C040FEA1C0D2
S11316309C2C821418F42C0C922C981844FEA3C0F1
S1131640B70180E390E00E94EF0B42FE09C088E7F7
S113165090E041FE02C088E590E0B7010E94EF0BE4
S1131660C91408F49CC0CA94D12C9FEFC91AD90A92
S1131670CA0CDB1CF60182916F01B70190E00E9455
S1131680EF0BAC14BD04B1F74FCF60817181072E0D
S1131690000C880B990B0E5F1F4F92CFD32CE8944C
S11316A0D4F82AE030E08537C9F1232D297FD22EE2
S11316B08F3691F1D8F4883539F1F7018681978115
S11316C02B96CDBFDEBFDF91CF911F910F91FF907D
S11316D0EF90DF90CF90BF90AF909F908F907F90CE
S11316E06F905F904F903F902F900895803749F00E
S11316F0883719F7D4FE02C06894D2F820E130E0AC
S11317000DC06894D4F8F6CF34FE03C0822F8660EF
S1131710D82E20E132E002C028E030E0F801D7FE04
S11317200FC060817181828193810C5F1F4FA5017D
S11317300E941F0CC82ECA183D2CE89437F855CFC8
S11317406081718190E080E00E5F1F4FF0CF42FC1A
S113175002C0839466CF8394839463CF842D867868
S113176009F45FCFF6CFB70180E290E00E94EF0B5F
S113177083948214C0F3512C61CF522C58188214D4
S113178008F45CCFF8CF842D867809F469CF8BE216
S113179041FE80E247FC8DE2B70190E05FCFB701E4
S11317A080E390E00E94EF0B9A945ACF8FEF9FEF63
S11317B087CFFC010590615070400110D8F78095E7
S11317C090958E0F9F1F0895FC0161507040019009
S11317D00110D8F7809590958E0F9F1F08950F9351
S11317E01F93CF93DF93182F092FEB018B8181FD7A
S11317F009C01FEF0FEF812F902FDF91CF911F9121
S11318000F91089582FF14C02E813F818C819D81A8
S1131810281739073CF4E881F981CF0101968883C0
S1131820998310838E819F8101968E839F83E3CF5A
S1131830E885F985812F0995892BA1F3DACFFA017F
S1131840AA27283051F1203181F1E8946F936E7FFB
S11318506E5F7F4F8F4F9F4FAF4FB1E03ED0B4E0EC
S11318603CD0670F781F891F9A1FA11D680F791F2D
S11318708A1F911DA11D6A0F711D811D911DA11D3E
S113188020D009F468943F912AE0269F112430194E
S1131890305D3193DEF6CF010895462F4770405DE9
S11318A04193B3E00FD0C9F7F6CF462F4F70405D98
S11318B04A3318F0495D31FD4052419302D0A9F7F3
S11318C0EACFB4E0A6959795879577956795BA95ED
S11318D0C9F700976105710508959B01AC010A2EB3
S11318E006945795479537952795BA95C9F7620F8A
S11118F0731F841F951FA01D0895F894FFCF49
S11318FE0000BD422000000000030000000064024E
S113190EA00200002A72696E672A0A0055415254D9
S113191E20496E746572727570742D4472697665A1
S113192E6E204C454420426C696E6B657220496E84
S113193E697469616C697A65642E0053657474699F
S113194E6E6720757020696E746572727272726E33
S113195E6161616C6C6C20706F696E746572727209
S113196E2076617272726169626C6565000A446FF9
S113197E20796F752077616E7420746F20636861AF
S113198E6E676520746865206672657175656E6331
S113199E79206F7220706F736974696F6E3F20289F
S11319AE462F50290A3E20000A4672657175656EEF
S11319BE63792028312D313020487A293A0A3E2085
S11319CE000A506F736974696F6E2028302D3729A1
S11319DE3A0A3E20000A556E7265636F676E697A25
S11319EE6564206F7074696F6E20272563272E201F
S11319FE506C6561736520656E7465722046206F48
S1131A0E722050206E6578742074696D652E0A00FC
S1131A1E0A4F7574206F662072616E67652E2043BF
S1131A2E6C616D70656420746F20257520487A2E64
S1131A3E0A004F4B2E204672657175656E637920D0
S1131A4E73657420746F20257520487A2E0A000A57
S1131A5E4F7574206F662072616E67652E20436C1D
S1131A6E616D70656420746F2025752E0A004F4BCE
S1131A7E2E20506F736974696F6E207365742074B1
S10B1A8E6F2025752E0A0000EB
S9030000FC
