:1000000079C0000095C0000093C0000091C00000BE
:100010008FC000008DC000008BC0000089C00000B0
:1000200087C0000085C0000083C0000081C00000C0
:100030007FC000007DC000007BC0000079C00000D0
:1000400077C0000075C0000073C0000071C00000E0
:100050006FC000006DC000006BC0000069C00000F0
:1000600067C0000065C0000063C0000061C0000000
:100070005FC000005DC000005BC0000059C0000010
:1000800057C0000055C0000053C0000051C0000020
:100090004FC000004DC000004BC0000049C0000030
:1000A00047C0000045C0000043C0000041C0000040
:1000B0003FC00000ADC000003BC0000039C00000E0
:1000C00037C0000035C0000033C0000031C0000060
:1000D0002FC000002DC000002BC0000029C0000070
:1000E00027C0000025C0000023C0000021C0000080
:1000F0001FC0000011241FBECFEFCDBFDFE7DEBF62
:1001000000C0209101102F7C206338ED34BF209374
:10011000011010E4A0E0B0E4ECE9F2E000E00BBF75
:1001200002C007900D92A230B107D9F7A9D0B4C090
:1001300067CF65EA80E890E0A9D08091650084FFF0
:10014000FCCF63E880E690E0A1D08091650080FD5F
:10015000FCCF609180006F7780E890E097C00895B1
:1001600061E080E690E092D061E883E690E08EC0A6
:100170000895E0E2F4E080E282838BE0858B94E0F6
:100180009283828B0895E0E6F4E08FEF818386838B
:10019000E0E480EC81838683089583E08093E60524
:1001A000E0E0FAE083E1818389EF90E086A397A302
:1001B000809100409091014080A791A78BE08083BF
:1001C00008958115C9F080910040909101408D3EC5
:1001D000910548F4809100409091014002968093EF
:1001E00000409093014080910040909101408093A5
:1001F000280A9093290A0895809100409091014027
:100200000D9788F380910040909101400297E7CFCD
:100210001F920F920FB60F9211240BB60F922F93CD
:100220003F934F935F936F937F938F939F93AF937E
:10023000BF93EF93FF938091290485FF05C081E070
:10024000C0DF80E2809329048091290482FF05C0E9
:1002500080E0B7DF84E080932904FF91EF91BF91A4
:10026000AF919F918F917F916F915F914F913F914E
:100270002F910F900BBE0F900FBE0F901F901895EF
:1002800058DF77DF80DF89DF7894FFCFDC0128ED4E
:0C029000209334006C930895F894FFCF85
:02029C007D00E3
:00000001FF
