:1000000079C0000088C0000086C0000084C00000E5
:1000100082C0000080C000007EC000007CC00000E4
:100020007AC00000A2C0000076C0000074C00000CA
:1000300072C0000070C000006EC000006CC0000004
:100040006AC0000068C0000066C0000064C0000014
:1000500062C0000060C000005EC000005CC0000024
:100060005AC0000058C0000056C0000054C0000034
:1000700052C0000050C000004EC000004CC0000044
:100080004AC0000048C0000046C0000044C0000054
:1000900042C0000040C000003EC000003CC0000064
:1000A0003AC0000038C0000036C0000034C0000074
:1000B00032C0000030C000002EC000002CC0000084
:1000C0002AC0000028C0000026C0000024C0000094
:1000D00022C0000020C000001EC000001CC00000A4
:1000E0001AC0000018C0000016C0000014C00000B4
:1000F00012C0000011241FBECFEFCDBFDFE7DEBF6F
:1001000000C0209101102F7C206338ED34BF209374
:10011000011034D037C074CF80918000856090E0AA
:1001200028ED24BF809380000895E0E6F4E080810C
:1001300081608083089583E08093E60587E1809362
:10014000010AE9E0FAE08081808380ED97E0809306
:10015000360A9093370A88EE93E08093380A90939A
:10016000390A8DE08093000A08958F9382E5809389
:10017000670481E080930B0A8F911895CDDFD5DF5E
:08018000DADFFFCFF894FFCF96
:00000001FF
