:100000000C947A000C94B1000C94B1000C94B100E3
:100010000C94B1000C94B1000C94B1000C94B1009C
:100020000C94B1000C94B1000C94B1000C94B1008C
:100030000C94B1000C94B1000C94B1000C94B1007C
:100040000C94B1000C94B1000C94B1000C94B1006C
:100050000C94B1000C94B1000C94B1000C94B1005C
:100060000C94B1000C94B1000C94B1000C94B1004C
:100070000C94B1000C94B1000C94B1000C94B1003C
:100080000C94B1000C94B1000C94B1000C94B1002C
:100090000C94B1000C94B1000C94B1000C94B1001C
:1000A0000C94B1000C94B1000C94B1000C94B1000C
:1000B0000C94B1000C94B1000C94B1000C94B100FC
:1000C0000C94B1000C94B1000C94B1000C94B100EC
:1000D0000C94B1000C94B1000C94B1000C94B100DC
:1000E0000C94B1000C94B1000C94B1000C94B100CC
:1000F0000C94B100809101108F7C8060806898ED35
:1001000094BF8093011011241FBECFEFCDBFDFE756
:0E011000DEBF0E948F000C94A600F894FFCF73
:10011E0088E0809321048FEF80936104A7E2B4E01E
:10012E0098E0E7E6F4E09C9380832FEF34E34CE015
:0E013E00215030404040E1F700C00000F4CFF7
:10014C00EC010E94B6000E94B500CE010E94B700DF
:06015C00CE010E94B30079
:040162000C940000F9
:040166000E948D0066
:02016A000895F6
:02016C000895F4
:02016E000895F2
:00000001FF
