:1000000079C000009EC000009CC000009AC00000A3
:1000100098C0000096C0000094C0000092C000008C
:1000200090C000008EC000008CC000008AC000009C
:1000300088C0000086C0000084C0000082C00000AC
:1000400080C000007EC000007CC000007AC00000BC
:1000500078C0000076C0000074C0000072C00000CC
:1000600070C000006EC000006CC000006AC00000DC
:1000700068C0000066C0000064C0000062C00000EC
:1000800060C000005EC000005CC000005AC00000FC
:1000900058C0000056C0000054C0000052C000000C
:1000A00050C000004EC000004CC000004AC000001C
:1000B00048C0000046C0000044C0000042C000002C
:1000C00040C000003EC000003CC000003AC000003C
:1000D00038C0000041C0000068C0000032C000000D
:1000E00030C000002EC000002CC000002AC000005C
:1000F00028C0000011241FBECFEFCDBFDFE7DEBF59
:1001000000C0209101102F7C206338ED34BF209374
:10011000011010E4A0E0B0E4E0EDF8E100E00BBF76
:1001200002C007900D92A431B107D9F721E4A4E1F0
:10013000B0E401C01D92AA33B207E1F7E6D30C94F4
:10014000660C5ECFE0E6F4E08FEF81838683E0E427
:1001500080EC8183868308951F920F920FB60F92D1
:1001600011240BB60F922F933F934F935F936F938E
:100170007F938F939F93AF93BF93EF93FF93809160
:10018000600810D2FF91EF91BF91AF919F918F9135
:100190007F916F915F914F913F912F910F900BBE87
:1001A0000F900FBE0F901F9018951F920F920FB6D1
:1001B0000F9211240BB60F922F933F934F935F939F
:1001C0006F937F938F939F93AF93BF93EF93FF931F
:1001D000CF93DF930F92CDB7DEB7CE010196EBD16F
:1001E0008115C9F08981809362080F90DF91CF91CA
:1001F000FF91EF91BF91AF919F918F917F916F91FF
:100200005F914F913F912F910F900BBE0F900FBEBA
:100210000F901F901895809165088F7D80936508D9
:10022000E4CF009711F40E941C097BC70895009742
:1002300011F40E941C09FC0112821382148215829F
:100240000895009709F4F8D7FC01868197810197FA
:100250000895FC01892B09F4EFD781E04281538195
:10026000248135814217530709F080E00895EF9209
:10027000FF920F931F93CF93DF937C018B01892B08
:1002800019F06230710508F4D7D788E090E0B3D652
:10029000EC010097C9F3E882F9820E831F83C7DF60
:1002A000CE01D7DF811581F3CE01CDB7DEB7E6E011
:1002B000ACC4EF92FF920F931F93CF93DF93EC01A7
:1002C0007B01009739F0672B29F00881198101150E
:1002D000110509F4B1D7BDDF81111AC08C819D8150
:1002E000080F191FF8018081F70180838C819D819F
:1002F00001962E813F812817390711F480E090E0A4
:100300008C839D8380E090E0CDB7DEB7E6E07DC4CE
:100310008FEF9FEFF9CFFC01228133812F5F3F4F99
:10032000868197818217930711F420E030E081E005
:10033000448155814217530709F080E008950F93D7
:100340001F93CF93DF938C01009709F475D7FC01BD
:10035000C681D781E0DF811539F0CE010197DF91A9
:10036000CF911F910F910895F8018281938124818B
:1003700035818217930718F0821B930BF0CF8C0FF7
:100380009D1FFACFCF93DF93EC01892B21F0888159
:100390009981009709F450D72A813B81820F931FDE
:1003A000FC016083CE01B7DF2E813F81811551F0C2
:1003B0008C819D8101968217930711F480E090E073
:1003C0008C839D838A819B8101968217930711F408
:1003D00080E090E08A839B83DF91CF910895A3E032
:1003E000B0E0E4EFF1E0FAC38A839B83698300976E
:1003F00031F0FC01008111810115110509F41CD7B0
:100400008A819B8188DF81111EC0EA81FB81828104
:100410009381080F191F8981F8018083EA81FB818C
:10042000828193810196268137812817390711F43B
:1004300080E090E0EA81FB818283938380E090E01A
:100440002396E4E0E4C38FEF9FEFFACFEF92FF92A1
:100450000F931F93CF93DF938C01EB017A010097E9
:1004600039F0209729F0FC0180819181892B09F4D2
:10047000E3D6C801EEDE811123C0C80160DF8E150E
:100480009F05F0F0F80184819581EC0EFD1ECE15DC
:10049000DF0531F480E090E0CDB7DEB7E6E0B5C32C
:1004A000F801A081B181A80FB91F2C912993019661
:1004B000268137812817390751F780E090E0E7CF90
:1004C0008FEF9FEFE9CFA1E0B0E0E8E6F2E086C36E
:1004D0008B01009721F480E02196E4E098C3672B1C
:1004E000D1F3BE016F5F7F4FE4DE892BA1F78981D5
:1004F000F801808381E0F0CF682F8091AE40909129
:10050000AF40009711F480E0089569DF892BD9F797
:10051000E091AA40F091AB40309719F0858180625C
:10052000858381E008951F93CF93DF93182FC82F01
:10053000D92F8881811519F0DFDF811106C08C2F3A
:10054000811BDF91CF911F9108952196F2CFBC01BD
:100550008091AC409091AD40B6CF0895A1E0B0E05D
:10056000E3EBF2E03DC38091AE409091AF40009745
:1005700069F067DE89838091AE409091AF40DFDE05
:100580009981981B892F2196E2E043C380E0FBCF3D
:100590008091AC409091AD40009711F0D0CE08957D
:1005A00080E00895682F8091AC409091AD40009715
:1005B00009F015CF0895BC018091AE409091AF40F5
:1005C00082CF0895AAE0B0E0E7EEF2E007C34983E6
:1005D0005A836B837C83813008F037C081E080933D
:1005E000010480E098E089879A87B801C90112D494
:1005F00020E030E040E852E49BD46D837E838F831B
:10060000988769817A818B819C8104D420E030E0D5
:1006100040E851E48DD49B01AC016D817E818F81D6
:10062000988564D320E030E040E05FE3FBD2C6D39E
:10063000E985FA856087718783E087838681806C8E
:100640008683CF012A96E4E0E2C239F48093410424
:10065000E0E2F8E0E987FA87C8CF823031F481E040
:100660008093A10480E498E0BECF833031F481E030
:1006700080932104E0E6F8E0EDCF843031F481E0AE
:100680008093810480E898E0AECF19861A86ADCFBA
:10069000EF92FF920F931F93E114F10489F19EE012
:1006A000E0E0F0E4D70101900D929A95E1F78ADF3E
:1006B000F701848795878093AA409093AB4060E4CC
:1006C00070E080EF90E4D3DD8093AE409093AF4034
:1006D00060E470E080EB90E4CADD8093AC409093DE
:1006E000AD40E091AA40F091AB40309719F0858180
:1006F00080688583C7011F910F91FF90EF90089547
:10070000E0E0F0E4E0933641F0933741E093344188
:10071000F0933541E0933841F09339417F01C7CFE1
:10072000FC0162830895FC01948195FFFDCF08953B
:100730000F931F93CF93C82F8B01873069F460917B
:100740003841709139418BE791E89FD580E090E086
:10075000CF911F910F9108958A3011F48DE0E8DF59
:10076000F80104851585C801DEDFF801C283EECFEC
:10077000FC01848187FFFDCF818182FF04C08081DD
:100780008EEF9FEF089586FF04C080818FEF9FEF6B
:100790000895808190E00895EF92FF920F931F9348
:1007A000CF93DF938C01E091A840F091A94030975E
:1007B00081F4C8E5D0E4F80184859585D9DF8D30D2
:1007C00011F08A30C1F48AE08883B801B1DFE8E52E
:1007D000F0E4CF0101968093A8409093A9408081D6
:1007E0008A3021F41092A8401092A94090E0CDB731
:1007F000DEB7E6E00AC2893091F090EE980F9F359F
:1008000010F0803A90F0F0E4C73ADF0751F46091BD
:100810003841709139418BE791E837D5CCCF80E2F0
:10082000F2CF8993B80184DFC6CF853109F468C05F
:1008300050F4883069F08231A9F1833009F0BBCFE0
:100840008FEF9FEFD4CF8731A1F08F3709F0B3CF6F
:1008500080E4C835D80709F008F4ADCFB80188E0C6
:1008600067DFB80180E264DFB80188E061DF2197CB
:10087000A2CF7E01E701E8E5EE16E0E4FE0609F00E
:1008800008F499CFF70182917F01803209F493CF68
:10089000B80188E04DDFB80180E24ADFB80188E0A6
:1008A00047DFE8CFB8018DE043DF88E5E82E80E43C
:1008B000F82EEC16FD0608F07ECFB801F701819105
:1008C0007F0136DFF6CFB80188E032DFB80180E281
:1008D0002FDFB80188E02CDFF1E0EF1AF10888E59E
:1008E000E81680E4F80609F070F790E4C835D907F7
:1008F00048F088E590E48C1B9D0BC80FD91F5BCF97
:100900007E01EDCF80E090E0F8CF0F92CDB7DEB75B
:1009100088ED84BF95E09093800084BF83E080934E
:10092000600010DCE12CF12C00E014E224EF30E058
:10093000B70140E855E283E0ABDE789480E090E8D0
:10094000E4D48FE290E8E1D481E08093640412E083
:10095000982E67016AEF70E0B12CA82E882E8FE3E5
:100960009CE90197F1F700C000009AE0C90ED11C84
:10097000C616D70658F08A2D002E01C0880F0A949B
:10098000EAF7809367049824C12CD12C80915640BB
:1009900090915740892B69F480915540811109C08D
:1009A000E1E6F0E8FF93EF9398D4809255400F90E2
:1009B0000F90CE010196CBDD811531F18981982F01
:1009C000990F990B9DD42091564030915740223079
:1009D000310509F479C0A0F48981232B81F5A09217
:1009E0005640B09257409FE3E5E1F0E411929A95AA
:1009F000E9F710925540809254408093144004C00F
:100A00002330310509F48BC0911409F4C1C08A2D3B
:100A1000002E01C0880F0A94EAF780936404812FA6
:100A2000869590E08C509E4F612F70E0B5D0653F69
:100A300021E0720708F493CF64EF71E090CFE0916A
:100A400054408A3019F08D3009F096C0E115E1F27A
:100A500084E1E82E80E4F82E80911440982F9F7D49
:100A60009634A1F48CE990E89F938F9336D482E07A
:100A700080935640109257401092544080E4F70102
:100A800011928A95E9F70F900F90BECF903539F407
:100A900085EB90E89F938F9320D483E0E9CF982F44
:100AA000990F990B9F938F9389EC90E89F938F9365
:100AB00014D41092564010925740109255400F9007
:100AC0000F900F900F90A0CF8981E09154408A3011
:100AD00019F08D3009F050C0E11509F495CF84E18B
:100AE00090E4AED3182F8B30B0F01AE0E12E181737
:100AF000190659F01F921F9384E091E89F938F93FA
:100B0000ECD30F900F900F900F901F92EF9286E210
:100B100091E89F93CCCF8111E9CF11E0E7CF898194
:100B2000E09154408A3011F08D3031F5E11509F42F
:100B30006BCF84E190E484D3082F883008F007E07D
:100B4000E02E0817190659F01F920F9383E491E8DD
:100B50009F938F93C2D30F900F900F900F908A2D79
:100B60000E2C01C0880F0A94EAF7809364041F9248
:100B7000EF9282E691E8CDCFEF3308F045CF91E0D8
:100B80009E0F90935440F0E0EC5EFF4B80833CCF8F
:100B90008FEF8093660443CFAA1BBB1B51E107C0B4
:100BA000AA1FBB1FA617B70710F0A61BB70B881FFD
:100BB000991F5A95A9F780959095BC01CD0108958C
:100BC0002F923F924F925F926F927F928F929F925D
:100BD000AF92BF92CF92DF92EF92FF920F931F934B
:100BE000CF93DF93CDB7DEB7CA1BDB0BCDBFDEBF24
:100BF00009942A88398848885F846E847D848C842F
:100C00009B84AA84B984C884DF80EE80FD800C8137
:100C10001B81AA81B981CE0FD11DCDBFDEBFED01F1
:100C200008955058BB27AA270ED048C139D130F0BB
:100C30003ED120F031F49F3F11F41EF42EC10EF48A
:100C4000E095E7FB24C1E92F4AD180F3BA17620788
:100C500073078407950718F071F49EF562C10EF4CE
:100C6000E0950B2EBA2FA02D0B01B90190010C01BC
:100C7000CA01A0011124FF27591B99F0593F50F4D4
:100C8000503E68F11A16F040A22F232F342F44272C
:100C9000585FF3CF469537952795A795F040539524
:100CA000C9F77EF41F16BA0B620B730B840BBAF0F4
:100CB0009150A1F0FF0FBB1F661F771F881FC2F75F
:100CC0000EC0BA0F621F731F841F48F48795779573
:100CD0006795B795F7959E3F08F0B3CF9395880F2A
:100CE00008F09927EE0F9795879508950CD0E6C0E8
:100CF000DED040F0D5D030F021F45F3F19F0C7C00E
:100D0000511110C1CAC0EBD098F39923C9F35523F0
:100D1000B1F3951B550BBB27AA27621773078407EE
:100D200038F09F5F5F4F220F331F441FAA1FA9F3A4
:100D300033D00E2E3AF0E0E830D091505040E69596
:100D4000001CCAF729D0FE2F27D0660F771F881FF7
:100D5000BB1F261737074807AB07B0E809F0BB0BE6
:100D6000802DBF01FF2793585F4F2AF09E3F51050A
:100D700068F08DC0D7C05F3FECF3983EDCF38695FA
:100D800077956795B795F7959F5FC9F7880F911D80
:100D90009695879597F90895E1E0660F771F881F6C
:100DA000BB1F621773078407BA0720F0621B730B1F
:100DB000840BBA0BEE1F88F7E095089598D088F061
:100DC0009F5790F0B92F9927B751A0F0D1F0660F37
:100DD000771F881F991F1AF0BA95C9F712C0B13052
:100DE00081F09FD0B1E008959CC0672F782F8827AD
:100DF000B85F39F0B93FCCF3869577956795B39591
:100E0000D9F73EF490958095709561957F4F8F4FFF
:100E10009F4F0895E89409C097FB3EF49095809504
:100E2000709561957F4F8F4F9F4F9923A9F0F92FB0
:100E300096E9BB279395F695879577956795B7952E
:100E4000F111F8CFFAF4BB0F11F460FF1BC06F5F14
:100E50007F4F8F4F9F4F16C0882311F096E911C026
:100E6000772321F09EE8872F762F05C0662371F047
:100E700096E8862F70E060E02AF09A95660F771F5B
:100E8000881FDAF7880F9695879597F9089597F94F
:100E90009F6780E870E060E008959FEF80EC089520
:100EA00000240A9416161706180609060895002449
:100EB0000A9412161306140605060895092E0394C3
:100EC000000C11F4882352F0BB0F40F4BF2B11F437
:100ED00060FF04C06F5F7F4F8F4F9F4F089557FD96
:100EE0009058440F551F59F05F3F71F04795880F98
:100EF00097FB991F61F09F3F79F08795089512162F
:100F000013061406551FF2CF4695F1DF08C01616DA
:100F100017061806991FF1CF86957105610508948B
:100F20000895E894BB2766277727CB0197F90895A2
:100F30000BD0C4CFB5DF28F0BADF18F0952309F045
:100F4000A6CFABCF1124EECFCADFA0F3959FD1F38C
:100F5000950F50E0551F629FF001729FBB27F00D67
:100F6000B11D639FAA27F00DB11DAA1F649F6627BC
:100F7000B00DA11D661F829F2227B00DA11D621F0B
:100F8000739FB00DA11D621F839FA00D611D221FC5
:100F9000749F3327A00D611D231F849F600D211DA9
:100FA000822F762F6A2F11249F5750408AF0E1F04C
:100FB00088234AF0EE0FFF1FBB1F661F771F881F95
:100FC00091505040A9F79E3F510570F060CFAACFD5
:100FD0005F3FECF3983EDCF3869577956795B79580
:100FE000F795E7959F5FC1F7FE2B880F911D9695AA
:100FF000879597F908950F931F93CF93DF938230CE
:10100000910510F482E090E0E0913041F09131419F
:1010100020E030E0D901309799F42115310509F429
:1010200047C0281B390B24303105B8F5DB01129677
:101030008D919D91209761F18A839B83FB010DC067
:10104000408151810281138148175907C0F089F40A
:10105000109751F012960D931C933296CF01DF91A9
:10106000CF911F910F91089500933041109331411A
:10107000F4CF2115310551F04217530738F0A9017B
:10108000DE019A01ED01DF01F801C5CFBF01F9CF03
:101090008093304190933141D1CFFB01E20FF31F98
:1010A0008193919322503109DB012D933D93D6CF4B
:1010B00040913241509133414115510541F44091E5
:1010C0001040509111404093324150933341209150
:1010D0000E4030910F402115310541F42DB73EB738
:1010E0006091124070911340261B370B4217530733
:1010F00008F0B4CF241B350B2817390708F4AECFFE
:10110000BC016E5F7F4F2617370708F4A7CF640F27
:10111000751F6093324170933341FA01819391932B
:101120009DCF009709F463C0FC01329712821382AD
:101130002091304130913141D90140E050E02115FA
:10114000310591F420813181820F931F209132412A
:10115000309133412817390709F063C0E0933241D9
:10116000F09333410895DB01AE17BF0708F040C08C
:1011700012966D917D911497AD016115710599F7E6
:10118000DA011296ED93FD9314976D917D91CD0147
:10119000860F971FE817F90761F480819181029605
:1011A000860F971FDA018D939D93828193818D9392
:1011B0009D93E0E0F0E0D90112968D919D911497F6
:1011C0000097A1F58D919D918A0F9B1F409132410F
:1011D000509133414817590751F4309751F5109207
:1011E0003041109231412093324130933341089580
:1011F000A283B38360817181860F971FA817B907F7
:1012000061F46E5F7F4F8D919D91860F971F808354
:1012100091838D919D91828393834115510509F0AE
:10122000AFCFE0933041F09331410895F9019C0133
:10123000C2CF12821382D7CF81E090E0F89446C3E8
:10124000FC0188279927E89421912032E9F329307D
:1012500010F02E30C8F32B3239F02D3231F468946F
:1012600003C00BD0820F911D219120532A30C8F367
:101270001EF4909581959F4F08957AE0979F902D49
:10128000879F802D910D11240895EF92FF920F9367
:101290001F93CF93DF937B01DB0113962C91EC011D
:1012A00000E010E021FD0EC00FEF1FEF0EC02196F1
:1012B000D7011896ED91FD91B7010995892B11F091
:1012C0000FEF1FEF88818111F2CFC801DF91CF911D
:1012D0001F910F91FF90EF900895CF93DF93CDB7BB
:1012E000DEB7AE014B5F5F4FFA0161917191AF01C3
:1012F000809136419091374134D0DF91CF9108955C
:10130000609136417091374136C20F931F93CF934E
:10131000DF93E0913641F09137412381EC0100E009
:1013200010E021FD0EC00FEF1FEFC801DF91CF913C
:101330001F910F91089521960995892B11F00FEFB8
:101340001FEF88816091364170913741DB0118961B
:10135000ED91FD918111EFCF8AE00995892B29F359
:10136000E2CF5F926F927F928F929F92AF92BF92E5
:10137000CF92DF92EF92FF920F931F93CF93DF9361
:10138000CDB7DEB72C97CDBFDEBF5C016B017A0114
:10139000FC0116821782838181FFD4C12AE0522E7C
:1013A000F5012381F60123FD859123FF81916F01D2
:1013B000811509F423C1853239F423FD959123FF6A
:1013C00091916F01953221F4B50190E0D4D1E8CF2D
:1013D00030E0712C00E010E0103210F59B32C9F0C3
:1013E00050F49032B9F09332C9F09E3261F516FD97
:1013F00005C1106405C09D3279F0903399F41160F5
:10140000F60123FD959123FF91916F019111E4CF96
:1014100023C012601460F4CF1860F2CF1061F0CFD7
:1014200017FD1AC080ED890F8A30F8F616FF05C047
:10143000759C800D1124782EE3CF059D800D11241D
:10144000082F1062DDCF9C3611F41068D9CF9C3480
:1014500009F43EC09836A1F2892F8F7D85548330E0
:10146000C8F1933609F45CC0933709F467C093352B
:1014700009F472C0943619F0993609F09BC0F7014F
:1014800017FF91C061917191819191917F011F76B8
:1014900097FF02C013D210682AE030E04E014FEFF0
:1014A000841A940AA401ACD1682E681816FFDBC018
:1014B000812F8E7F671408F0D5C014FF23C112FD61
:1014C00017C11E7E972C812F867809F4D7C015C1CD
:1014D00031E096CF311501F1F8E0EF0EF11C8FE30A
:1014E000898391E0692E712C4E018FEF881A980A3A
:1014F0001F7713FD04C06016710408F43CC061142A
:10150000710409F03EC0011509F44ACFB50180E22B
:1015100090E031D10150F7CF44E0E40EF11CDFCF71
:10152000F70180818983F2E0EF0EF11C81E0682EE3
:10153000712C4E014FEF841A940ADACFF701819093
:1015400091907F01672D70E016FD02C06FEF7FEF75
:10155000C40106D13C01CCCFF701819091907F016D
:10156000672D70E016FD02C06FEF7FEFC401EDD074
:101570003C011068BECFB50180E290E0FCD0015084
:10158000BACFF40117FD859117FF81914F01B50185
:1015900090E0F1D081E0011101C080E0081BF1E092
:1015A0006F1A7108ACCF61917191872F880F880BEA
:1015B000982F6CCF9537C1F41F7E1C872AE030E04E
:1015C000FC85F7FF49C0F70161917191819191917B
:1015D0007F014E014FEF841A940AA40111D1682EA5
:1015E00068181C851F7762CF812F897F8C87903781
:1015F00011F1D0F4983531F19F3659F1F50186811A
:1016000097812C96CDBFDEBFDF91CF911F910F91B7
:10161000FF90EF90DF90CF90BF90AF909F908F9012
:101620007F906F905F900895983741F714FD06C042
:1016300020E130E0C5CF9C8590619C87EC85E4601B
:10164000EC87F6CF14FF02C016601C8720E132E061
:10165000B7CF28E030E0B4CFF7016191719180E01D
:1016600090E0B6CF182F962C14FF2DCFFE01E60D7B
:10167000F11D8081803309F03EC0197E13FD0EC03C
:1016800010FF4BC0762C901618F4700E7918902E1F
:10169000802F8919091508F480E0980E901608F03B
:1016A0003EC0091914FF3DC0B50180E390E063D04E
:1016B00012FF08C088E590E011FD02C088E790E0C5
:1016C000B50159D06714C0F14E018FEF881A980AFE
:1016D0006A94FE013296E60DF11D3F01F3018291FD
:1016E0003F01B50190E047D068147904B9F70BCFFA
:1016F000972C182FBBCF12FD02C09394BFCF9394A9
:101700009394BCCF972C182FDECEB50180E290E0E9
:1017100032D083948016C8F3BBCF892CFBCF00E076
:10172000C1CF812F867871F280E211FD8BE217FD27
:101730008DE2B50190E0C5CFB50180E390E01BD00C
:101740007A94C0CF8FEF9FEF5CCFFC010590615082
:1017500070400110D8F7809590958E0F9F1F0895C7
:10176000FC016150704001900110D8F78095909570
:101770008E0F9F1F08951F93CF93DF9300D00F927A
:10178000CDB7DEB7182F99836A837B83DB0113966D
:101790008C9181FD0CC01FEFBFEFB983812F998120
:1017A0000F900F900F90DF91CF911F91089582FFBE
:1017B0001BC0EA81FB8126813781848195812817AE
:1017C000390754F40190F081E02DCF010196AA81F0
:1017D000BB818D939D931083EA81FB8186819781E4
:1017E000019686839783DACFAA81BB811896ED9103
:1017F000FD911A97BD01812F0995892B69F3CBCFF4
:10180000FA01AA27283051F1203181F1E8946F9331
:101810006E7F6E5F7F4F8F4F9F4FAF4FB1E03ED0D7
:10182000B4E03CD0670F781F891F9A1FA11D680F75
:10183000791F8A1F911DA11D6A0F711D811D911DA8
:10184000A11D20D009F468943F912AE0269F11241D
:101850003019305D3193DEF6CF010895462F477081
:10186000405D4193B3E00FD0C9F7F6CF462F4F70DC
:10187000405D4A3318F0495D31FD4052419302D03A
:10188000A9F7EACFB4E0A6959795879577956795E0
:10189000BA95C9F700976105710508959B01AC01E0
:1018A0000A2E06945795479537952795BA95C9F707
:1018B000620F731F841F951FA01D0895909580953A
:1018C000709561957F4F8F4F9F4F0895F894FFCF8C
:1018D00000000003000000009803CC03000000009B
:0418E0003A41200069
:020000021000EC
:108000005541525420496E746572727570742D44D6
:10801000726976656E204C454420426C696E6B65D2
:108020007220496E697469616C697A65642E0053C7
:10803000657474696E6720757020696E74657272FC
:108040007272726E6161616C6C6C20706F696E74BB
:10805000657272722076617272726169626C6565B6
:10806000000A446F20796F752077616E7420746FF9
:10807000206368616E67652074686520667265714B
:1080800075656E6379206F7220706F736974696FA4
:108090006E3F2028462F50290A3E20000A4672656E
:1080A0007175656E63792028312D313020487A2929
:1080B0003A0A3E20000A506F736974696F6E202877
:1080C000302D37293A0A3E20000A556E7265636FDB
:1080D000676E697A6564206F7074696F6E202725FA
:1080E00063272E20506C6561736520656E74657220
:1080F0002046206F722050206E6578742074696D60
:10810000652E0A000A4F7574206F662072616E67D3
:10811000652E20436C616D70656420746F20257539
:1081200020487A2E0A004F4B2E20467265717565E5
:108130006E63792073657420746F20257520487AEA
:108140002E0A000A4F7574206F662072616E676593
:108150002E20436C616D70656420746F2025752E30
:108160000A004F4B2E20506F736974696F6E207335
:10817000657420746F2025752E0A002A72696E6757
:038180002A0A00C8
:00000001FF
