:1000000079C0000088C0000086C0000084C00000E5
:1000100082C0000080C000007EC000007CC00000E4
:100020007AC00000AAC0000076C0000074C00000C2
:1000300072C0000070C000006EC000006CC0000004
:100040006AC0000068C0000066C0000064C0000014
:1000500062C0000060C000005EC000005CC0000024
:100060005AC0000058C0000056C0000054C0000034
:1000700052C0000050C000004EC000004CC0000044
:100080004AC0000048C0000046C0000044C0000054
:1000900042C0000040C000003EC000003CC0000064
:1000A0003AC0000038C0000036C0000034C0000074
:1000B00032C0000030C000002EC000002CC0000084
:1000C0002AC0000028C0000026C0000024C0000094
:1000D00022C0000020C000001EC000001CC00000A4
:1000E0001AC0000018C0000016C0000014C00000B4
:1000F00012C0000011241FBECFEFCDBFDFE7DEBF6F
:1001000000C0209101102F7C206338ED34BF209374
:1001100001103CD040C074CF80918000816090E09D
:1001200028ED24BF809380000895E0E6F4E080810C
:1001300089608083089583E08093E60581E0809361
:10014000030A81E18093010A8FED8093260A8CE9EE
:100150008093270A80E78093280A8EE48093290AF7
:100160008FE08093000A0895E0E0FAE080818E7FBE
:1001700080838CE08093050A08958F9382E58093B5
:10018000670481E080930B0A8F911895C5DFCDDF5E
:0A019000EBDFD1DFFFCFF894FFCFC3
:00000001FF
