:100000000C947A000C9491000C9491000C94910043
:100010000C9491000C9491000C9491000C9491001C
:100020000C9491000C9491000C9491000C9491000C
:100030000C9491000C9491000C9491000C949100FC
:100040000C9491000C9491000C9491000C949100EC
:100050000C9491000C9491000C9491000C949100DC
:100060000C9491000C9491000C9491000C949100CC
:100070000C9491000C9491000C9491000C949100BC
:100080000C9491000C9491000C9491000C949100AC
:100090000C9491000C9491000C9491000C9491009C
:1000A0000C9491000C9491000C9491000C9491008C
:1000B0000C9491000C9499000C9491000C94910074
:1000C0000C9491000C9491000C9491000C9491006C
:1000D0000C9491000C9491000C9491000C9491005C
:1000E0000C9491000C9491000C9491000C9491004C
:1000F0000C94910011241FBECFEFCDBFDFE7DEBF10
:1001000010E4A0E0B0E4E6E1F4E000E00BBF02C0E0
:1001100007900D92A230B107D9F70E94CB000C9442
:1001200009020C9400006CE188E690E00E94030252
:1001300008951F920F920FB60F9211248F93809102
:10014000290482FD0BC08091290485FF0DC081E048
:100150008093004080E28093290406C088E0809369
:10016000004084E0809329048F910F900FBE0F9080
:100170001F901895E0E2F4E084E0828380E28283BD
:100180008BE0828B858B78940895E0E6F4E08FEF26
:100190008183868308950E9493000E94C5000E9477
:1001A000BA0081E08093650491E080E021E030E0D6
:1001B000A0E6B4E071E060E0A9C04FEF59E6E8E1E5
:1001C00041505040E040E1F700C00000A901082E76
:1001D00002C0440F551F0A94E2F716964C931697E7
:1001E000992309F484C08F5F873010F0962F87E041
:1001F000A901082E02C0440F551F0A94E2F7159674
:100200004C931597E0910040E150EA3008F0E8C0C7
:10021000F0E0E35FFE4F0C94FA017D019A01A40126
:10022000AC01B601C001C901D201DC01E6014FEF0A
:1002300054E3ECE041505040E040E1F700C00000E2
:10024000C5CF46E553E2E8E041505040E040E1F7D9
:10025000BDCF4FE75AE1E6E041505040E040E1F7C2
:1002600000C00000B3CF4FEF51EEE4E041505040EA
:10027000E040E1F700C00000A9CF49EA51E1E4E025
:1002800041505040E040E1F70000A0CF4CED5CE76A
:10029000E3E041505040E040E1F700C097CF4FE32A
:1002A0005DE0E3E041505040E040E1F700C0000075
:1002B0008DCF42E756EBE2E041505040E040E1F79D
:1002C00000C000C083CF4FEF50E7E2E04150504004
:1002D000E040E1F700C0000079CF4FE75AE1E6E0E7
:1002E00041505040E040E1F700C000006FCF815026
:1002F000972F09F47DCF962F7BCF4FEF59E6E8E19A
:1003000041505040E040E1F700C00000E091004063
:10031000E150EA3010F7F0E0E057FE4F0C94FA019C
:10032000DD0017012101290133013D0146014F0183
:10033000590163014FEF54E3ECE041505040E0407D
:10034000E1F700C00000E2CF46E553E2E8E04150AB
:100350005040E040E1F7DACF4FE75AE1E6E04150A4
:100360005040E040E1F700C00000D0CF4FEF51EE29
:10037000E4E041505040E040E1F700C00000C6CF4B
:1003800049EA51E1E4E041505040E040E1F700002B
:10039000BDCF4CED5CE7E3E041505040E040E1F779
:1003A00000C0B4CF4FE35DE0E3E041505040E04097
:1003B000E1F700C00000AACF42E756EBE2E041506F
:1003C0005040E040E1F700C000C0A0CF4FEF50E741
:1003D000E2E041505040E040E1F700C0000096CF1D
:1003E0004FE75AE1E6E041505040E040E1F700C0FD
:1003F00000008CCFEE0FFF1F0024001C0BBE0790E7
:10040000F691E02D0994DC0128ED209334006C93E3
:060410000895F894FFCFEF
:020416000400E0
:00000001FF
