S00F000064656661756C742E7372656330
S11300000C947A000C9499000C9499000C94990027
S11300100C9499000C9499000C9499000C949900F8
S11300200C9499000C9416020C9499000C9486017B
S11300300C94B6010C94E6010C9499000C9499006C
S11300400C9499000C9499000C9499000C949900C8
S11300500C9499000C9499000C9499000C949900B8
S11300600C9499000C9499000C9499000C949900A8
S11300700C9499000C9499000C9499000C94990098
S11300800C9499000C9499000C9499000C94990088
S11300900C9499000C9499000C9499000C94990078
S11300A00C9499000C9499000C9499000C94990068
S11300B00C9499000C9499000C9499000C94990058
S11300C00C9499000C9499000C9499000C94990048
S11300D00C9499000C9491040C94BB040C94990016
S11300E00C9499000C9499000C9499000C94990028
S11300F00C94990011241FBECFEFCDBFDFE7DEBF04
S113010010E4A0E0B0E4E8E0F9E100E00BBF02C0D5
S113011007900D92AA3FB107D9F721E4AAEFB0E402
S113012001C01D92A53EB207E1F70E94C4050C94DC
S1130130820C0C940000009731F0FC0112821382AF
S11301401482158208950E945F09FC01892B51F0E5
S113015081E042815381248135814217530709F09C
S113016080E008950E945F09EF92FF920F931F931E
S1130170CF93DF938C017B01892BE9F06230710509
S1130180D0F088E090E00E943A08EC010097A9F0D2
S113019008831983EE82FF820E949B00CE010E9495
S11301A0A500882361F0CE01DF91CF911F910F91BB
S11301B0FF90EF9008950E945F090E945F090E94DA
S11301C05F09EF92FF920F931F93CF93DF93EC019C
S11301D07B01009731F1672B21F108811981011509
S11301E01105F9F00E94A500811120C08C819D8128
S11301F0080F191FF8018081F70180838C819D818C
S113020001962E813F812817390769F08C839D83DD
S113021090E080E0DF91CF911F910F91FF90EF90DC
S113022008950E945F0990E080E0F0CF8FEF9FEF88
S1130230F1CFFC01228133812F5F3F4F868197816B
S11302408217930741F081E0448155814217530797
S113025009F080E0089530E020E0F5CFFF920F939D
S11302601F93CF93DF93EC01F62E009709F10881D9
S1130270198101151105E1F00E94190181111DC0B8
S11302808A819B81080F191FF801F0828A819B8162
S113029001962E813F812817390761F08A839B8359
S11302A090E080E0DF91CF911F910F91FF9008952E
S11302B00E945F0990E080E0F1CF8FEF9FEFF2CFD3
S11302C008950895089508958093064090930740F3
S11302D00895E0E0FAE010A611A612A613A614A64B
S11302E015A610A211A21182128213821482158201
S11302F01682178216861186128613868FE59AEE69
S113030086A397A3178685E0808308951F920F9292
S11303100FB60F9211240BB60F922F933F934F9366
S11303205F936F937F938F939F93AF93BF93EF9359
S1130330FF93E0910C40F0910D40309709F009953E
S113034080E180930B0AFF91EF91BF91AF919F9150
S11303508F917F916F915F914F913F912F910F906A
S11303600BBE0F900FBE0F901F9018951F920F9207
S11303700FB60F9211240BB60F922F933F934F9306
S11303805F936F937F938F939F93AF93BF93EF93F9
S1130390FF93E0910A40F0910B40309709F00995E2
S11303A080E280930B0AFF91EF91BF91AF919F91EF
S11303B08F917F916F915F914F913F912F910F900A
S11303C00BBE0F900FBE0F901F9018951F920F92A7
S11303D00FB60F9211240BB60F922F933F934F93A6
S11303E05F936F937F938F939F93AF93BF93EF9399
S11303F0FF93E0910840F0910940309709F0099586
S113040080E480930B0AFF91EF91BF91AF919F918C
S11304108F917F916F915F914F913F912F910F90A9
S11304200BBE0F900FBE0F901F9018951F920F9246
S11304300FB60F9211240BB60F922F933F934F9345
S11304405F936F937F938F939F93AF93BF93EF9338
S1130450FF93E0910640F0910740309709F0099529
S113046081E080930B0AFF91EF91BF91AF919F912F
S11304708F917F916F915F914F913F912F910F9049
S11304800BBE0F900FBE0F901F901895E0E0FAE09E
S113049080818160808308950F931F93CF93DF93AE
S11304A01F92CDB7DEB7009781F06115710579F021
S11304B08B01BE016F5F7F4F0E94E100892B71F4B5
S11304C08981F801808381E003C080E001C080E07D
S11304D00F90DF91CF911F910F91089580E0F8CF95
S11304E020914E4130914F412115310521F0682F63
S11304F0C9010E942E010895BC0180915041909140
S113050051410E944C0208958F929F92AF92BF92E4
S1130510CF92DF92EF92FF920F931F93CF93DF93CB
S11305204A015B01882391F0813009F44DC0823087
S113053009F44FC0833009F452C0843009F055C027
S113054081E080938104C0E8D8E005C081E0809315
S11305500104C0E0D8E0C901B8010E943F0720E0CF
S113056030E040E852E40E94CD076B017C01C501F4
S1130570B4010E943F0720E030E040E851E40E94CB
S1130580CD079B01AC01C701B6010E949E0620E085
S113059030E040E05FE30E9432060E941007688763
S11305A0798783E08F838E81806C8E83CE01DF9187
S11305B0CF911F910F91FF90EF90DF90CF90BF905C
S11305C0AF909F908F90089580934104C0E2D8E04B
S11305D0C2CF81E08093A104C0E4D8E0BCCF81E025
S11305E080932104C0E6D8E0B6CFD0E0C0E0B3CF1A
S11305F0EF92FF920F931F93CF93DF93E114F104D3
S1130600B1F19EE0EEE0F0E4D70101900D929A95ED
S1130610E1F7E7010E9484028C879D8780934C4117
S113062090934D4160E470E082E991E40E94B4004B
S1130630809350419093514160E470E082E591E4ED
S11306400E94B40080934E4190934F41E0914C41FD
S1130650F0914D41309719F0858180688583CE01F2
S1130660DF91CF911F910F91FF90EF900895EFEDDF
S1130670F1E4AEE0B0E4A283B383A083B183A483A6
S1130680B583ED01C7CFFC01948195FFFDCF08959B
S11306900F931F93CF93C82F8B01873081F08A303B
S11306A0D9F0F80104851585C8010E944303F801B7
S11306B0C28390E080E0CF911F910F910895209123
S11306C0E3413091E44147E050E061E070E08FE1C4
S11306D090E40E946409EDCF8DE00E944803E1CFCD
S11306E0FC0194819923ECF7818182FD05C086FD8C
S11306F007C0808190E0089580818EEF9FEF089578
S113070080818FEF9FEF08959F92AF92BF92CF9217
S1130710DF92EF92FF920F931F93CF93DF93209179
S11307204A4130914B41232BD9F0E0914A41F09159
S11307304B41CF01019680934A4190934B41808174
S11307408A3009F4D1C090E0DF91CF911F910F91CD
S1130750FF90EF90DF90CF90BF90AF909F9008955F
S1130760EC010AEF10E46894992495F868010F2EBF
S1130770F9EFAF2EF0E4BF2EF02D1DC08AE0F80192
S11307808083BE010E9448038AEF90E480934A412B
S113079090934B41CACF892DF1E409341F0709F422
S11307A040C078019FEFE91AF90AF8018083BE017D
S11307B00E94480387018C859D850E9470038D30BB
S11307C0E9F28A30D9F2893031F390EE980F9F35EF
S11307D018F3803A08F7823109F46CC048F1873184
S11307E009F441C08F3751F1853129F780E40A3F7C
S11307F0180709F300F3BE0188E00E944803BE0114
S1130800892D0E944803BE0188E00E9448030150DC
S11308101109F0E40A3F1F0771F785010F5F1F4FAD
S1130820CACFBE0187E00E94480309E411E4C3CFA4
S1130830833009F45EC0883009F0BDCF90E40A3FEC
S1130840190709F008F4B7CFBE0188E00E944803F5
S1130850BE01892D0E944803BE0188E00E9448031E
S113086001501109A8CFF0E40A3F1F0709F008F46A
S1130870A2CFF80131978081803209F49CCF7801AE
S113088081E0E81AF108BE0188E00E944803BE0135
S1130890892D0E944803BE0188E00E944803870115
S11308A0EC14FD0409F487CFF70182917F018032B3
S11308B051F781CFBE018DE00E944803E0E40A3F76
S11308C01E0709F008F477CF0F2EFAEFEF2EF0E4AD
S11308D0FF2EF02DBE01F70181917F010E94480394
S11308E00E151F05B9F767CF10924A4110924B417C
S11308F02ACF8FEF9FEF28CFE0E6F4E08FEF8183DC
S11309008683E0E4F4E080EC818386830895E0E26A
S1130910F4E080E2828388E0858B94E09283828B8A
S113092008951F920F920FB60F9211240BB60F92D7
S11309302F933F934F935F936F937F938F939F93E3
S1130940AF93BF93EF93FF93809160080E9470026E
S1130950FF91EF91BF91AF919F918F917F916F9193
S11309605F914F913F912F910F900BBE0F900FBE4F
S11309700F901F9018951F920F920FB60F9211248B
S11309800BB60F922F933F934F935F936F937F9385
S11309908F939F93AF93BF93EF93FF93CF93DF9383
S11309A01F92CDB7DEB7CE0101960E947C02811161
S11309B01BC0E0E6F8E085818F7D85830F90DF9191
S11309C0CF91FF91EF91BF91AF919F918F917F91C3
S11309D06F915F914F913F912F910F900BBE0F90AC
S11309E00FBE0F901F901895898180936208E6CFFF
S11309F01F93CF93DF9380912804D1E0982F9072B6
S1130A0085FDD0E080912804C1E0182F147082FD88
S1130A10C0E091110FC080911D4081110BC08091E5
S1130A20D341811107C080911E408F3F71F582E34D
S1130A308093D3418091D341882329F08091D3417D
S1130A4081508093D341D0931D4011110FC08091E8
S1130A501C4081110BC08091D241811107C080914B
S1130A601E40823030F582E38093D2418091D2419E
S1130A70882329F08091D24181508093D241C09340
S1130A801C40DF91CF911F91089580911E408F5F8C
S1130A9080931E4080911E401F928F9387E290E4C2
S1130AA09F938F930E94A2090F900F900F900F9025
S1130AB0BECF80911E40815080931E4080911E4085
S1130AC01F928F9386E490E49F938F930E94A209D0
S1130AD00F900F900F900F90C6CF8091D9419091B5
S1130AE0DA4101968093D9419093DA410E94F80447
S1130AF060911E40E091D741F091D8412091D941B5
S1130B003091DA4170E0660F771F88EE93E00E941F
S1130B1009066E0F7F1F2617370788F08091D94189
S1130B209091DA418093D7419093D84184E08093A7
S1130B3067048091D44191E089278093D4418091C6
S1130B40D5419091D6412091D9413091DA418857CD
S1130B509C4E2817390708F408958091D941909143
S1130B60DA418093D5419093D64180911E401F92E3
S1130B708F9385E690E49F938F930E94A2090F9030
S1130B800F900F900F90E8CF88ED84BFE0E6F0E07F
S1130B9095E090A384BF83E080830E947C040E943C
S1130BA08704F12CE12C00E014E224EF30E040E86B
S1130BB055E260E070E083E00E94F8020E9469015F
S1130BC0C0E0DAE08FE99FE08EA39FA38DE695E075
S1130BD00E94640181E08A870E9446028FEF80931D
S1130BE06604789483E890E40E94B60989EA90E464
S1130BF00E94B60980911E401F928F9380EE90E46C
S1130C009F938F930E94A2090F900F900F900F90C3
S1130C10FFCF97FB072E16F4009407D077FD09D079
S1130C200E941D0607FC05D03EF4909581959F4FC8
S1130C300895709561957F4F0895AA1BBB1B51E1E0
S1130C4007C0AA1FBB1FA617B70710F0A61BB70B38
S1130C50881F991F5A95A9F780959095BC01CD01DD
S1130C6008955058BB27AA270E9449060C9493075D
S1130C700E94850738F00E948C0720F039F49F3FCA
S1130C8019F426F40C9482070EF4E095E7FB0C9417
S1130C907C07E92F0E94A40758F3BA176207730769
S1130CA08407950720F079F4A6F50C94C6070EF492
S1130CB0E0950B2EBA2FA02D0B01B90190010C0168
S1130CC0CA01A0011124FF27591B99F0593F50F480
S1130CD0503E68F11A16F040A22F232F342F4427D8
S1130CE0585FF3CF469537952795A795F0405395D0
S1130CF0C9F77EF41F16BA0B620B730B840BBAF0A0
S1130D009150A1F0FF0FBB1F661F771F881FC2F70A
S1130D100EC0BA0F621F731F841F48F4879577951E
S1130D206795B795F7959E3F08F0B0CF9395880FD8
S1130D3008F09927EE0F9795879508950E94B206BB
S1130D400C9493070E948C0758F00E94850740F08A
S1130D5029F45F3F29F00C947C0751110C94C707C8
S1130D600C9482070E94A40768F39923B1F35523D6
S1130D7091F3951B550BBB27AA27621773078407AA
S1130D8038F09F5F5F4F220F331F441FAA1FA9F340
S1130D9035D00E2E3AF0E0E832D091505040E6952E
S1130DA0001CCAF72BD0FE2F29D0660F771F881F8F
S1130DB0BB1F261737074807AB07B0E809F0BB0B82
S1130DC0802DBF01FF2793585F4F3AF09E3F510596
S1130DD078F00C947C070C94C7075F3FE4F3983ECB
S1130DE0D4F3869577956795B795F7959F5FC9F77F
S1130DF0880F911D9695879597F90895E1E0660F00
S1130E00771F881FBB1F621773078407BA0720F078
S1130E10621B730B840BBA0BEE1F88F7E0950895E1
S1130E200E94AC0788F09F5798F0B92F9927B751C3
S1130E30B0F0E1F0660F771F881F991F1AF0BA957A
S1130E40C9F714C0B13091F00E94C607B1E008950B
S1130E500C94C607672F782F8827B85F39F0B93FFD
S1130E60CCF3869577956795B395D9F73EF490952D
S1130E708095709561957F4F8F4F9F4F0895E894AB
S1130E8009C097FB3EF490958095709561957F4FCE
S1130E908F4F9F4F9923A9F0F92F96E9BB2793957C
S1130EA0F695879577956795B795F111F8CFFAF48C
S1130EB0BB0F11F460FF1BC06F5F7F4F8F4F9F4FBD
S1130EC016C0882311F096E911C0772321F09EE81B
S1130ED0872F762F05C0662371F096E8862F70E081
S1130EE060E02AF09A95660F771F881FDAF7880F5B
S1130EF09695879597F9089597F99F6780E870E02C
S1130F0060E008959FEF80EC089500240A9416167B
S1130F10170618060906089500240A9412161306E3
S1130F20140605060895092E0394000C11F4882371
S1130F3052F0BB0F40F4BF2B11F460FF04C06F5F8D
S1130F407F4F8F4F9F4F089557FD9058440F551F63
S1130F5059F05F3F71F04795880F97FB991F61F037
S1130F609F3F79F087950895121613061406551FAE
S1130F70F2CF4695F1DF08C0161617061806991F1A
S1130F80F1CF86957105610508940895E894BB270F
S1130F9066277727CB0197F908950E94E0070C9400
S1130FA093070E94850738F00E948C0720F0952350
S1130FB011F00C947C070C94820711240C94C7073D
S1130FC00E94A40770F3959FC1F3950F50E0551F3D
S1130FD0629FF001729FBB27F00DB11D639FAA278A
S1130FE0F00DB11DAA1F649F6627B00DA11D661FD9
S1130FF0829F2227B00DA11D621F739FB00DA11DFA
S1131000621F839FA00D611D221F749F3327A00DB3
S1131010611D231F849F600D211D822F762F6A2F4F
S113102011249F5750409AF0F1F088234AF0EE0FB4
S1131030FF1FBB1F661F771F881F91505040A9F7E1
S11310409E3F510580F00C947C070C94C7075F3FCA
S1131050E4F3983ED4F3869577956795B795F7951D
S1131060E7959F5FC1F7FE2B880F911D9695879595
S113107097F908950F931F93CF93DF9382309105CF
S113108010F482E090E0E091DD41F091DE4130E047
S113109020E0B0E0A0E0309799F42115310509F47F
S11310A04AC0281B390B24303105D8F58A819B812D
S11310B06115710589F1FB0182839383FE0111C0DF
S11310C0408151810281138148175907E0F0481784
S11310D0590799F4109761F012960C93129713968E
S11310E01C933296CF01DF91CF911F910F910895F8
S11310F00093DD411093DE41F4CF2115310551F009
S11311004217530738F0A901DB019A01BD01DF0141
S1131110F801C1CFEF01F9CF8093DD419093DE4117
S1131120CDCFFE01E20FF31F819391932250310939
S113113028833983D7CF2091DB413091DC41232BA5
S113114041F420910240309103402093DB413093DD
S1131150DC4120910040309101402115310541F4DA
S11311602DB73EB74091044050910540241B350BE8
S1131170E091DB41F091DC41E217F307A0F42E1B70
S11311803F0B2817390778F0AC014E5F5F4F2417E7
S1131190350748F04E0F5F1F4093DB415093DC410D
S11311A0819391939FCFF0E0E0E09CCFCF93DF93C6
S11311B00097E9F0FC01329712821382A091DD417D
S11311C0B091DE41ED0130E020E01097A1F42081E0
S11311D03181820F931F2091DB413091DC4128172C
S11311E0390709F061C0E093DB41F093DC41DF9102
S11311F0CF910895EA01CE17DF07E8F54A815B81B4
S11312009E0141155105B1F7E901EA83FB83499138
S11312105991C40FD51FEC17FD0761F480819181AA
S11312200296840F951FE9018883998382819381B3
S11312308A839B83F0E0E0E012968D919C91139752
S11312400097B9F52D913C911197CD010296820F2B
S1131250931F2091DB413091DC412817390739F67F
S1131260309751F51092DD411092DE41A093DB419D
S1131270B093DC41BCCFC283D38340815181840FBE
S1131280951FC817D90761F44E5F5F4F8881998114
S1131290480F591F408351838A819B8182839383A2
S11312A02115310509F0B0CFE093DD41F093DE4123
S11312B09ECFFD01DC01C0CF12821382D7CF81E023
S11312C090E0F8940C94820C8F929F92AF92BF920C
S11312D0CF92DF92EF92FF920F931F93CF93DF93FE
S11312E05B014A017901D90113962C91D0E0C0E049
S11312F021FF1AC0C815D905B9F08C016C01CA0CBC
S1131300DB1C0CC00F5F1F4FD7011896ED91FC91A9
S1131310B701DC018C910995892B31F4C8010C15B6
S11313201D0581F72196E6CFCE01DF91CF911F9164
S11313300F91FF90EF90DF90CF90BF90AF909F9070
S11313408F900895CF93DF93CDB7DEB7AE014B5F97
S11313505F4FFA0161917191AF018091E1419091E8
S1131360E2410E94E109DF91CF9108950F931F9309
S1131370CF93DF93E091E141F091E2412381EC01CD
S113138010E000E021FD08C00FEF1FEF14C0099525
S1131390892B11F00FEF1FEF89916091E14170915A
S11313A0E241DB011896ED91FC918111F0CF8AE0C6
S11313B00995892B49F7C801DF91CF911F910F91AE
S11313C008952F923F924F925F926F927F928F92E5
S11313D09F92AF92BF92CF92DF92EF92FF920F93C0
S11313E01F93CF93DF93CDB7DEB72B97CDBFDEBF6F
S11313F07C013B018A01FC0116821782838181FFF3
S1131400DAC1CE0101965C01F7019381F30193FDEA
S1131410859193FF81913F01882309F453C185325B
S113142039F493FD859193FF81913F01853229F42D
S1131430B70190E00E94F40BE7CF912C212C312CC2
S1131440FFE1F31538F08B3211F190F4803209F199
S1131450833229F137FC3CC020ED280F2A3050F5A7
S113146036FE20C08AE0989E200D1124922E06C0DC
S11314708D3291F0803371F7689430F8F30193FD65
S1131480859193FF81913F018111DACF21C0689446
S113149031F8689432F8F2CF689433F8EFCF689457
S11314A034F8ECCFEAE02E9E200D1124222E68940D
S11314B035F8E4CF8E3229F436FC04C1689436F84A
S11314C0DDCF8C3619F4689437F8D8CF8836B1F26A
S11314D0982F9F7D95549330E0F08336A1F18337A4
S11314E0C1F1833509F063C02801F2E04F0E511CAD
S11314F0F801C080D180692D70E036FC02C06FEF26
S11315007FEFC6010E94DE0B4C01689437F882011C
S11315100AC00C5F1F4FFFE3F98388248394912C46
S11315206501E89437F833FE2DC0522C81149104E0
S113153071F5552009F468CFB70180E290E00E946C
S1131540F40B5A94F6CFF801808189830E5F1F4F04
S1131550E4CF2801F2E04F0E511CF801C080D18085
S1131560692D70E036FC02C06FEF7FEFC6010E9468
S1131570E90B4C018201D5CFB70180E290E00E94D3
S1131580F40B2A942814190409F0B0F7CECFF6010D
S113159037FC859137FE81916F01B70190E00E947D
S11315A0F40B51105A94F1E08F1A9108BFCF84368E
S11315B019F0893609F077C0F80137FE6BC06081F5
S11315C07181828193810C5F1F4FF32DFF763F2E33
S11315D097FF09C090958095709561957F4F8F4FC7
S11315E09F4F689437F82AE030E0A5010E94240C4C
S11315F0C82ECA188C2C432C36FE0CC0E89440F834
S1131600C91440F434FE05C032FC03C0F32DFE7E41
S11316104F2E892C44FEA7C0FE01EC0DF11D8081E4
S1131620803309F099C0242D297E422E842D8870A0
S1131630582E43FCA7C040FEA1C09C2C821418F471
S11316402C0C922C981844FEA3C0B70180E390E0C0
S11316500E94F40B42FE09C088E790E041FE02C0FC
S113166088E590E0B7010E94F40BC91408F49CC00B
S1131670CA94D12C9FEFC91AD90ACA0CDB1CF601F3
S113168082916F01B70190E00E94F40BAC14BD0489
S1131690B1F74FCF60817181072E000C880B990B35
S11316A00E5F1F4F92CFD32CE894D4F82AE030E099
S11316B08537C9F1232D297FD22E8F3691F1D8F4A5
S11316C0883539F1F701868197812B96CDBFDEBF2E
S11316D0DF91CF911F910F91FF90EF90DF90CF900A
S11316E0BF90AF909F908F907F906F905F904F903E
S11316F03F902F900895803749F0883719F7D4FE2A
S113170002C06894D2F820E130E00DC06894D4F8A7
S1131710F6CF34FE03C0822F8660D82E20E132E05B
S113172002C028E030E0F801D7FE0FC0608171816B
S1131730828193810C5F1F4FA5010E94240CC82E47
S1131740CA183D2CE89437F855CF6081718190E038
S113175080E00E5F1F4FF0CF42FC02C0839466CF3F
S11317608394839463CF842D867809F45FCFF6CF76
S1131770B70180E290E00E94F40B83948214C0F3DA
S1131780512C61CF522C5818821408F45CCFF8CF36
S1131790842D867809F469CF8BE241FE80E247FC10
S11317A08DE2B70190E05FCFB70180E390E00E9443
S11317B0F40B9A945ACF8FEF9FEF87CFFC010590DB
S11317C0615070400110D8F7809590958E0F9F1F3F
S11317D00895FC016150704001900110D8F7809584
S11317E090958E0F9F1F08950F931F93CF93DF93B0
S11317F0182F092FEB018B8181FD09C01FEF0FEF1B
S1131800812F902FDF91CF911F910F91089582FF27
S113181014C02E813F818C819D81281739073CF4A7
S1131820E881F981CF0101968883998310838E81A1
S11318309F8101968E839F83E3CFE885F985812F6D
S11318400995892BA1F3DACFFA01AA27283051F19F
S1131850203181F1E8946F936E7F6E5F7F4F8F4FDD
S11318609F4FAF4FB1E03ED0B4E03CD0670F781F3C
S1131870891F9A1FA11D680F791F8A1F911DA11D21
S11318806A0F711D811D911DA11D20D009F468945A
S11318903F912AE0269F11243019305D3193DEF602
S11318A0CF010895462F4770405D4193B3E00FD0B8
S11318B0C9F7F6CF462F4F70405D4A3318F0495DA3
S11318C031FD4052419302D0A9F7EACFB4E0A69586
S11318D09795879577956795BA95C9F700976105A8
S11318E0710508959B01AC010A2E069457954795FE
S11318F037952795BA95C9F7620F731F841F951FF3
S10B1900A01D0895F894FFCF27
S11319080000E541200063016201610160010000FB
S11319180003000000004803840300000101032AB7
S113192872696E672A0A004672657175656E637915
S113193820696E6372656173656420746F3A20254B
S11319486420487A0A004672657175656E63792069
S113195864656372656173656420746F3A202564F5
S113196820487A0A0043757272656E74204C4544A7
S1131978206672657175656E63793A20256420481E
S11319887A0A004C4544204672657175656E637920
S113199820436F6E74726F6C6C657220496E697443
S11319A869616C697A65642E0042544E31203D2089
S11319B8496E6372656D656E7420467265717565EE
S11319C86E63792C2042544E32203D204465637264
S11319D8656D656E74204672657175656E63790010
S11319E8496E697469616C206672657175656E63A8
S10D19F8793A20256420487A0A0099
S9030000FC
