:1000000079C000009EC000009CC000009AC00000A3
:1000100098C000003BC1000094C0000092C00000E6
:1000200090C00000B0C000008CC000008AC000007A
:1000300088C0000086C0000084C0000082C00000AC
:1000400080C000007EC000007CC000007AC00000BC
:1000500078C0000076C0000074C0000072C00000CC
:1000600070C000006EC000006CC000006AC00000DC
:1000700068C0000066C0000064C0000062C00000EC
:1000800060C000005EC000005CC000005AC00000FC
:1000900058C0000056C0000054C0000052C000000C
:1000A00050C000004EC000004CC000004AC000001C
:1000B00048C0000046C0000044C0000042C000002C
:1000C00040C000003EC000003CC000003AC000003C
:1000D00038C000003BC1000062C1000032C0000017
:1000E00030C000002EC000002CC000002AC000005C
:1000F00028C0000011241FBECFEFCDBFDFE7DEBF59
:1001000000C0209101102F7C206338ED34BF209374
:10011000011010E4A0E0B0E4ECECF4E200E00BBF6E
:1001200002C007900D92A431B107D9F721E4A4E1F0
:10013000B0E401C01D92AC36B207E1F7B2D70C941F
:100140005E125ECFE0E6F4E08FEF81838683E0E22B
:1001500088E081838583E0E480EC81838683089551
:100160001092010AE9E0FAE08081808380E792E062
:100170008093260A9093270A8DE08093000A81E0FD
:1001800080930A0A08951F921FB61F9211242F937D
:100190008F939F9381E080930B0A809119409091F7
:1001A0001A4001968093194090931A4080911F4005
:1001B0008115A1F18091174090911840019680938C
:1001C0001740909318408091174090911840C29723
:1001D00038F0109217401092184088E0809327045E
:1001E0008091154090911640019680931540909310
:1001F00016408091154090911640883B9B4038F006
:10020000109215401092164081E0809314409F9107
:100210008F912F911F901FBE1F901895109217401D
:100220001092184088E080932504DACF65EA80E8D0
:1002300090E00E9458128091650084FFFCCF63E833
:1002400080E690E00E9458128091650080FDFCCF0E
:10025000609180006F7780E890E00C9458120895C8
:1002600061E080E690E00E94581261E883E690E049
:100270000C9458120895E0E4F1E0178280E090E8D1
:100280008287938781E08283808308951F921FB6BF
:100290001F9211248F939F93AF93BF9381E080931C
:1002A000430180911B4090911C40A0911D40B09152
:1002B0001E400196A11DB11D80931B4090931C40D0
:1002C000A0931D40B0931E40809126408F5F809385
:1002D0002640809126408C33C0F0109226408091B9
:1002E00025408F5F80932540809125408C3368F0B6
:1002F00010922540809124408F5F8093244080910C
:100300002440883110F010922440809120408115C3
:10031000A9F0909124408091214098130FC09091B2
:10032000254080912240981309C0909126408091E9
:100330002340981303C081E080931F40BF91AF9189
:100340009F918F911F901FBE1F9018951F920F9223
:100350000FB60F9211240BB60F922F933F934F932A
:100360005F936F937F938F939F93AF93BF93EF931D
:10037000FF93809160081AD2FF91EF91BF91AF91E6
:100380009F918F917F916F915F914F913F912F91AD
:100390000F900BBE0F900FBE0F901F9018951F92DD
:1003A0000F920FB60F9211240BB60F922F933F931B
:1003B0004F935F936F937F938F939F93AF93BF936D
:1003C000EF93FF93CF93DF930F92CDB7DEB7CE01BC
:1003D0000196F5D18115C9F08981809362080F904B
:1003E000DF91CF91FF91EF91BF91AF919F918F914D
:1003F0007F916F915F914F913F912F910F900BBE25
:100400000F900FBE0F901F901895809165088F7DFB
:1004100080936508E4CF009711F40E94B80B0C9408
:10042000270B0895009711F40E94B80BFC0112826B
:100430001382148215820895009711F40E94B80B5C
:10044000FC018681978101970895FC01892B11F4A5
:100450000E94B80B81E0428153812481358142178B
:10046000530709F080E00895EF92FF920F931F93D6
:10047000CF93DF937C018B01892B19F062307105DA
:1004800010F40E94B80B88E090E00E94910AEC0101
:100490000097B9F3E882F9820E831F83C3DFCE0190
:1004A000D4DF811571F3CE01CDB7DEB7E6E043C6E8
:1004B000EF92FF920F931F93CF93DF93EC017B0199
:1004C000009739F0672B29F0088119810115110572
:1004D00011F40E94B80BB9DF81111AC08C819D8183
:1004E000080F191FF8018081F70180838C819D819D
:1004F00001962E813F812817390711F480E090E0A2
:100500008C839D8380E090E0CDB7DEB7E6E013C634
:100510008FEF9FEFF9CFFC01228133812F5F3F4F97
:10052000868197818217930711F420E030E081E003
:10053000448155814217530709F080E008950F93D5
:100540001F93CF93DF938C01009711F40E94B80B97
:10055000FC01C681D781DFDF811539F0CE0101971B
:10056000DF91CF911F910F910895F80182819381BE
:10057000248135818217930718F0821B930BF0CFEB
:100580008C0F9D1FFACFCF93DF93EC01892B21F0C5
:1005900088819981009711F40E94B80B2A813B81D0
:1005A000820F931FFC016083CE01B5DF2E813F8156
:1005B000811551F08C819D8101968217930711F46A
:1005C00080E090E08C839D838A819B8101968217D5
:1005D000930711F480E090E08A839B83DF91CF91B1
:1005E0000895A3E0B0E0E6EFF2E08EC58A839B8336
:1005F0006983009731F0FC0100811181011511051B
:1006000011F40E94B80B8A819B8185DF81111EC085
:10061000EA81FB8182819381080F191F8981F8018A
:100620008083EA81FB8182819381019626813781D3
:100630002817390711F480E090E0EA81FB8182837A
:10064000938380E090E02396E4E077C58FEF9FEFFF
:10065000FACFEF92FF920F931F93CF93DF938C010A
:10066000EB017A01009739F0209729F0FC01808195
:100670009181892B11F40E94B80BC801E6DE81112B
:1006800023C0C8015CDF8E159F05F0F0F80184815E
:100690009581EC0EFD1ECE15DF0531F480E090E073
:1006A000CDB7DEB7E6E047C5F801A081B181A80F5C
:1006B000B91F2C9129930196268137812817390774
:1006C00051F780E090E0E7CF8FEF9FEFE9CFA1E017
:1006D000B0E0ECE6F3E018C58B01009721F480E070
:1006E0002196E4E02AC5672BD1F3BE016F5F7F4FEF
:1006F000DFDE892BA1F78981F801808381E0F0CFCB
:10070000682F80917D4090917E40009711F480E0A9
:10071000089567DF892BD9F7E0917940F0917A400D
:10072000309719F085818062858381E008951F9359
:10073000CF93DF93182FC82FD92F8881811519F0F7
:10074000DFDF811106C08C2F811BDF91CF911F91BC
:1007500008952196F2CFBC0180917B4090917C401E
:10076000B6CF0895A1E0B0E0E7EBF3E0CFC480910D
:100770007D4090917E40009769F05EDE8983809194
:100780007D4090917E40DBDE9981981B892F2196D8
:10079000E2E0D5C480E0FBCF80917B4090917C402B
:1007A000009711F0CCCE089580E00895682F8091D5
:1007B0007B4090917C40009709F013CF0895BC01D5
:1007C00080917D4090917E4082CF0895AAE0B0E074
:1007D000EBEEF3E099C449835A836B837C838130C9
:1007E00008F037C081E08093010480E098E08987B9
:1007F0009A87B801C901A4D520E030E040E852E46E
:100800002DD66D837E838F83988769817A818B81D2
:100810009C8196D520E030E040E851E41FD69B0152
:10082000AC016D817E818F819885F6D420E030E027
:1008300040E05FE38DD458D5E985FA8560877187FC
:1008400083E087838681806C8683CF012A96E4E0EB
:1008500074C439F480934104E0E2F8E0E987FA8750
:10086000C8CF823031F481E08093A10480E498E025
:10087000BECF833031F481E080932104E0E6F8E0DC
:10088000EDCF843031F481E08093810480E898E0FA
:10089000AECF19861A86ADCFEF92FF920F931F93BA
:1008A000CF93DF93E701209779F19EE0E0E0F0E459
:1008B000D70101900D929A95E1F788DF8C879D878B
:1008C0008093794090937A4060E470E08FEB90E4FD
:1008D000CBDD80937D4090937E4060E470E08FE7B5
:1008E00090E4C2DD80937B4090937C40E09179401E
:1008F000F0917A40309719F0858180688583CE0128
:10090000CDB7DEB7E6E017C4E0E0F0E4E09368417D
:10091000F0936941E0936641F0936741E0936A4147
:10092000F0936B41EF01C9CFFC0162830895FC0194
:10093000848185FFFDCF08950F931F93CF93C82F18
:100940008B01873069F460916A4170916B4181E459
:1009500090E81BD780E090E0CF911F910F91089510
:100960008A3011F48DE0E8DFF80104851585C801AF
:10097000DEDFF801C283EECFFC01848187FFFDCF6B
:10098000818182FF04C080818EEF9FEF089586FFF2
:1009900004C080818FEF9FEF0895808190E00895DB
:1009A000EF92FF920F931F93CF93DF938C01E0910F
:1009B0007740F0917840309781F4C7E2D0E4F801B5
:1009C00084859585D9DF8D3011F08A30C1F48AE0B5
:1009D0008883B801B1DFE7E2F0E4CF0101968093AC
:1009E00077409093784080818A3021F4109277404C
:1009F0001092784090E0CDB7DEB7E6E09CC3893036
:100A000091F090EE980F9F3510F0803A90F0F0E45E
:100A1000C637DF0751F460916A4170916B4181E400
:100A200090E8B3D6CCCF80E2F2CF8993B80184DFCF
:100A3000C6CF853109F468C050F4883069F082313E
:100A4000A9F1833009F0BBCF8FEF9FEFD4CF87316F
:100A5000A1F08F3709F0B3CF80E4C732D80709F08F
:100A600008F4ADCFB80188E067DFB80180E264DF49
:100A7000B80188E061DF2197A2CF7E01E701E7E2BC
:100A8000EE16E0E4FE0609F008F499CFF701829132
:100A90007F01803209F493CFB80188E04DDFB801BF
:100AA00080E24ADFB80188E047DFE8CFB8018DE097
:100AB00043DF87E2E82E80E4F82EEC16FD0608F00E
:100AC0007ECFB801F70181917F0136DFF6CFB80103
:100AD00088E032DFB80180E22FDFB80188E02CDF48
:100AE000F1E0EF1AF10887E2E81680E4F80609F071
:100AF00070F790E4C732D90748F087E290E48C1B86
:100B00009D0BC80FD91F5BCF7E01EDCF80E090E039
:100B1000F8CF0F931F93CF93DF9389E490E879D6B2
:100B2000C0E0D0E803E510E888819981892B29F499
:100B3000DF91CF911F910F9108958D818F938C81BB
:100B40008F931F930F934DD626960F900F900F9073
:100B50000F90EACF10921F408FEF8093660488E0D9
:100B60008093250489E590E854C608958BE890E8C1
:100B700050D680914801909149019F938F938BE9C2
:100B800090E89F938F932DD680914A0190914B01CD
:100B90009F938F938AEA90E89F938F9322D68091B8
:100BA00040011F928F9389EB90E89F938F9319D602
:100BB000809141011F928F938EEC90E89F938F93C9
:100BC00010D6809142011F928F9384EE90E89F93FC
:100BD0008F9307D6809143011F928F938BEF90E8FC
:100BE0009F938F93FED5809147011F928F9383E14E
:100BF00091E89F938F93F5D580911B4090911C4075
:100C0000A0911D40B0911E40BF93AF939F938F93CF
:100C100089E291E89F938F93E4D58DB79EB7829632
:100C20008DBF9EBF809120419091214188DC9F9390
:100C30008F9381E491E89F938F93D3D5809147015F
:100C40000F900F900F900F90811591F080914701B8
:100C5000823089F48CE790E89F938F9389E591E83F
:100C60009F938F93BED50F900F900F900F90089584
:100C70008DE690E8F1CF87E690E8EECF60E470E093
:100C800082E291E4F1DB8093204190932141109224
:100C9000FF400895A5E4B0E0EFE4F6E02FC27E0146
:100CA0008FEFE81AF80A0DE611E8C70154DD81114B
:100CB00045C08091204190912141C7DB81113AC00C
:100CC000670110E0BE016B5B7F4F809120419091E6
:100CD0002141EEDB892B59F426968FAD269781159D
:100CE00031F01F5FF60181936F011F3159F7F70152
:100CF000E10FF11D10821115E9F06E01F1E2CF0E46
:100D0000D11CDF92CF928E010B5C1F4F1F930F936C
:100D100085E791E89F938F93FF92EF92A6D57C0190
:100D2000CDBFDEBFBD2CA02ED12EF801181619069E
:100D30000CF472C0CB5BDF4FEAE0F9C18981982FD8
:100D4000990F990B61D589818A3011F08D30C1F5E9
:100D5000E091FF40E11509F4A8CFF0E0E050FF4B2F
:100D6000108280E0C82E81E4D82ED6018C918111AA
:100D700015C08091204190912141CDDB811106C0A9
:100D800060E080912041909121412BDC1092FF4046
:100D90001F930F9326D50F900F9087CF80912041FE
:100DA00090912141B8DB8111E4CF9FEFC91AD90A94
:100DB000F6016291809120419091214112DCD5CFC2
:100DC000883011F08F3769F48091FF40811509F464
:100DD0006CCF81508093FF4081E791E89F938F9380
:100DE000D9CF90EE980F9F3508F05FCFE091FF408C
:100DF000EF3108F05ACF91E09E0F9093FF40F0E062
:100E0000E050FF4B808351CF31969FE9980F9A3184
:100E100018F4DF0180528E9380818111F5CF00E0BC
:100E200010E8F801608171816115710579F4DF9234
:100E3000AF928FE791E89F938F93D3D484E991E8A1
:100E4000E8D40F900F900F900F9074CF8A2D9D2DA6
:100E500093D4892B71F4D8011296ED91FD918C2DCC
:100E60009B2DB1E0EB16F10411F484E791E80995AC
:100E700061CF0A5F1F4FD5CF0F931F93CF93DF939F
:100E800085EB91E8C6D482ED91E8C3D484EF91E874
:100E9000C0D4C0E0D0E803E510E888819981892BAF
:100EA00061F48DE691E89F938F939BD40F900F9000
:100EB000DF91CF911F910F9108958D818F938C8138
:100EC0008F931F930F938DD426960F900F900F90B2
:100ED0000F90E3CFA6E0B0E0EFE6F7E015C18B019D
:100EE0009E012F5F3F4F3F932F932E5F3F4F3F93C6
:100EF0002F932E5F3F4F3F932F9328E032E83F938D
:100F00002F939F938F93B1D4CDBFDEBF0397B9F4D6
:100F10004D815E814831510590F42B813C812C3309
:100F2000310568F489819A818C33910540F4F80188
:100F300040832183828381E02696E4E0FEC080E046
:100F4000FBCFA3E0B0E0E6EAF7E0E0C0BE016F5FF0
:100F50007F4FC0DF811519F1F89489819A81AB81A7
:100F60008093214090932240A093234081E080937E
:100F7000204010921F4078948B811F928F938A811A
:100F80001F928F9389811F928F9381E192E89F93A3
:100F90008F9327D4CDBFDEBF2396E2E0D0C08EE290
:100FA00092E837D4F9CFA3E0B0E0E8EDF7E0AEC0C7
:100FB000BE016F5F7F4F8EDF8115F1F0F89489815C
:100FC0009A81AB818093244090932540A093264042
:100FD00078948B811F928F938A811F928F9389813E
:100FE0001F928F9380E592E89F938F93FAD3CDBFA2
:100FF000DEBF2396E2E0A3C08EE292E80AD4F9CFE6
:101000002091264090912540809124401F922F935B
:101010001F929F931F928F938CE692E89F938F93DA
:10102000E0D3809120402DB73EB7285F3F4F2DBFC2
:101030003EBF811569F1209123409091224080911B
:1010400021401F922F931F929F931F928F938AE8A4
:1010500092E89F938F93C5D380911F402DB73EB7E1
:10106000285F3F4F2DBF3EBF811539F084EA92E8DB
:101070009F938F93B6D30F900F908AE090E0C4D3E4
:1010800080911F40811541F08FEB92E8C2C3089513
:1010900082EB92E8BED3F4CF84ED92E8F7CFB0CFE5
:1010A0000895C4D84FD8EADDE12CF12C00E014E219
:1010B00024EF30E0B70140E855E283E0EDDB50D8A3
:1010C000DAD87894D9DE0EE611E8E4DD8091144098
:1010D0008115D9F3109214408AE290E89AD390DFF8
:1010E0001F930F937ED30F900F90EFCF2F923F92CD
:1010F0004F925F926F927F928F929F92AF92BF9228
:10110000CF92DF92EF92FF920F931F93CF93DF93D3
:10111000CDB7DEB7CA1BDB0BCDBFDEBF09942A8873
:10112000398848885F846E847D848C849B84AA84FB
:10113000B984C884DF80EE80FD800C811B81AA8188
:10114000B981CE0FD11DCDBFDEBFED01089550583E
:10115000BB27AA270ED048C139D130F03ED120F0AC
:1011600031F49F3F11F41EF42EC10EF4E095E7FB1D
:1011700024C1E92F4AD180F3BA17620773078407A5
:10118000950718F071F49EF562C10EF4E0950B2EF0
:10119000BA2FA02D0B01B90190010C01CA01A001C9
:1011A0001124FF27591B99F0593F50F4503E68F124
:1011B0001A16F040A22F232F342F4427585FF3CF65
:1011C000469537952795A795F0405395C9F77EF436
:1011D0001F16BA0B620B730B840BBAF09150A1F07F
:1011E000FF0FBB1F661F771F881FC2F70EC0BA0F05
:1011F000621F731F841F48F4879577956795B7958D
:10120000F7959E3F08F0B3CF9395880F08F0992784
:10121000EE0F9795879508950CD0E6C0DED040F08C
:10122000D5D030F021F45F3F19F0C7C0511110C183
:10123000CAC0EBD098F39923C9F35523B1F3951B9A
:10124000550BBB27AA2762177307840738F09F5FE7
:101250005F4F220F331F441FAA1FA9F333D00E2E56
:101260003AF0E0E830D091505040E695001CCAF7C3
:1012700029D0FE2F27D0660F771F881FBB1F261788
:1012800037074807AB07B0E809F0BB0B802DBF015B
:10129000FF2793585F4F2AF09E3F510568F08DC09D
:1012A000D7C05F3FECF3983EDCF386957795679562
:1012B000B795F7959F5FC9F7880F911D969587950C
:1012C00097F90895E1E0660F771F881FBB1F62172B
:1012D00073078407BA0720F0621B730B840BBA0BE9
:1012E000EE1F88F7E095089598D088F09F5790F00A
:1012F000B92F9927B751A0F0D1F0660F771F881F3B
:10130000991F1AF0BA95C9F712C0B13081F09FD079
:10131000B1E008959CC0672F782F8827B85F39F017
:10132000B93FCCF3869577956795B395D9F73EF499
:1013300090958095709561957F4F8F4F9F4F089541
:10134000E89409C097FB3EF490958095709561955F
:101350007F4F8F4F9F4F9923A9F0F92F96E9BB2715
:101360009395F695879577956795B795F111F8CF91
:10137000FAF4BB0F11F460FF1BC06F5F7F4F8F4FFC
:101380009F4F16C0882311F096E911C0772321F0F2
:101390009EE8872F762F05C0662371F096E8862F8A
:1013A00070E060E02AF09A95660F771F881FDAF7E1
:1013B000880F9695879597F9089597F99F6780E824
:1013C00070E060E008959FEF80EC089500240A9497
:1013D0001616170618060906089500240A94121610
:1013E0001306140605060895092E0394000C11F443
:1013F000882352F0BB0F40F4BF2B11F460FF04C0F0
:101400006F5F7F4F8F4F9F4F089557FD9058440F48
:10141000551F59F05F3F71F04795880F97FB991F53
:1014200061F09F3F79F08795089512161306140610
:10143000551FF2CF4695F1DF08C01616170618069D
:10144000991FF1CF86957105610508940895E89478
:10145000BB2766277727CB0197F908950BD0C4CF18
:10146000B5DF28F0BADF18F0952309F0A6CFABCF8F
:101470001124EECFCADFA0F3959FD1F3950F50E072
:10148000551F629FF001729FBB27F00DB11D639F36
:10149000AA27F00DB11DAA1F649F6627B00DA11DDC
:1014A000661F829F2227B00DA11D621F739FB00D82
:1014B000A11D621F839FA00D611D221F749F3327F2
:1014C000A00D611D231F849F600D211D822F762F8B
:1014D0006A2F11249F5750408AF0E1F088234AF088
:1014E000EE0FFF1FBB1F661F771F881F91505040D4
:1014F000A9F79E3F510570F060CFAACF5F3FECF394
:10150000983EDCF3869577956795B795F795E795BF
:101510009F5FC1F7FE2B880F911D9695879597F9D0
:1015200008950F931F93CF93DF939C01029710F4BC
:1015300022E030E0E0916241F091634180E090E090
:10154000A0E0B0E0309791F4009709F448C0821B06
:10155000930B84309105D0F58A819B8161157105CB
:1015600081F1FB0182839383FE0111C0408151818F
:101570000281138142175307D8F04217530799F499
:10158000109761F012960C93129713961C93329653
:10159000CF01DF91CF911F910F9108950093624188
:1015A00010936341F4CF009751F04817590738F072
:1015B000AC01DB01CA01BD01DF01F801C3CFEF01BE
:1015C000F9CF8093624190936341CECFFE01E80F43
:1015D000F91F21933193029788839983D9CF409142
:1015E0006441509165414115510541F440911040CD
:1015F00050911140409364415093654180910E4059
:1016000090910F40009741F48DB79EB760911240C2
:1016100070911340861B970B4817590708F0B8CFF5
:10162000841B950B8217930708F4B2CFB9016E5F44
:101630007F4F8617970708F4ABCF640F751F609331
:10164000644170936541FA0121933193A1CFCF9307
:10165000DF939C010097E9F0FC013297128213821C
:10166000C0916241D0916341DE0180E090E020971B
:10167000A1F480819181280F391F8091644190915C
:1016800065418217930709F068C0E0936441F093C5
:101690006541DF91CF910895DA01AE17BF0708F0D9
:1016A00042C012964D915C911397CD0141155105A1
:1016B00099F7DC011296ED93FC9313974D915D9190
:1016C0009D01240F351FE217F30781F4208131813A
:1016D0002E5F3F4F240F351FDC012D933C93119754
:1016E0002281338112962D933C931397E0E0F0E032
:1016F0008A819B810097B1F5DE018D919D918A0FC2
:101700009B1F20916441309165412817390709F6E4
:10171000309759F51092624110926341C093644131
:10172000D0936541B6CFA283B38340815181240F0A
:10173000351FA217B30771F44E5F5F4F2D913C9197
:101740001197240F351F2083318312962D913C91E0
:1017500022833383009709F0ACCFE0936241F0938A
:10176000634197CFFE01EC01C3CF12821382D6CF23
:1017700081E090E0F894A2C6FB01DC018D9101901C
:1017800080190110D9F3990B0895EF92FF920F93EE
:101790001F93CF93DF938B01DB0113962C91E12CE8
:1017A000F12C21FD12C0EE24EA94FF24FA9411C01A
:1017B000D8011896ED91FC91B8010995892B21F07B
:1017C000EE24EA94FF24FA94CE01EC018991811170
:1017D000EFCFC701DF91CF911F910F91FF90EF9055
:1017E0000895CF93DF93CDB7DEB7AE014B5F5F4F68
:1017F000FA0161917191AF018091684190916941C5
:101800004FD0DF91CF910895609168417091694107
:10181000A5C50F931F93CF93DF93E0916841F0919B
:101820006941238100E010E021FD0EC00FEF1FEFA2
:10183000C801DF91CF911F910F9108950995892BD0
:1018400011F00FEF1FEFCE01EC018991609168411B
:1018500070916941DB011896ED91FC918111EECFF9
:101860008AE00995892B21F3E1CFCF93DF93CDB7A0
:10187000DEB72E97CDBFDEBF85E08C838B899C8938
:1018800089839A83AE01495E5F4F6D897E89CE015F
:101890000196ADD32E96CDBFDEBFDF91CF910895D7
:1018A0003F924F925F926F927F928F929F92AF92F0
:1018B000BF92CF92DF92EF92FF920F931F93CF933D
:1018C000DF93CDB7DEB72B97CDBFDEBF6C017B01B9
:1018D0008A01FC0116821782838181FFDEC19AE0B2
:1018E000492EF6012381F70123FD859123FF819184
:1018F0007F01811509F418C1853239F423FD9591D2
:1019000023FF91917F01953221F4B60190E026D515
:10191000E8CF30E0612C512C712CF0E27F1640F5BD
:101920009B32D9F058F49032D1F09332F1F09E32DC
:1019300099F576FCF9C0689476F806C09D3291F06E
:101940009033C1F4689470F8F70123FD959123FF5B
:1019500091917F019111E1CF29C0689471F8689449
:1019600072F8F2CF689473F8EFCF689474F8ECCF04
:1019700077FC1CC080ED890F8A30C8F676FE05C062
:10198000649C800D1124682EDFCF549C800D11249F
:10199000582E689475F8D8CF9C3619F4689477F867
:1019A000D3CF9C3409F44AC0983671F2892F8F7DC9
:1019B0008554833008F444C0933609F464C09337E7
:1019C00009F467C0933509F472C0943619F099365A
:1019D00009F099C0F80177FE8FC0619171918191F2
:1019E00091918F01272D2F76722E97FF09C0909528
:1019F0008095709561957F4F8F4F9F4F689477F8D2
:101A00002AE030E0AE014F5F5F4F5A01F0D48A19EF
:101A1000A82E76FED0C0872D8E7FA61408F0CAC0EF
:101A200074FE1AC172FC0EC1F72DFE7E7F2EB62CFD
:101A3000872D8678811509F4CBC009C131E084CFA8
:101A40003115F1F0085F1F4F8FE389838824839459
:101A5000912CAE014F5F5F4F5A01E89477F873FC09
:101A600003C08514910498F181149104B1F55114C7
:101A700009F437CFB60180E290E070D45A94F7CFE2
:101A80000C5F1F4FE1CFF801808189830E5F1F4FEC
:101A9000DDCFF801A190B1908F01662D70E076FC4A
:101AA00002C06FEF7FEFC5010BD44C01D6CFF80118
:101AB000A190B1908F01662D70E076FC02C06FEFAF
:101AC0007FEFC501E3D34C01689477F8C8CFB60126
:101AD00080E290E043D45A94C4CFF50177FC85911D
:101AE00077FE81915F01B60190E038D451105A948D
:101AF000F1E08F1A9108B8CF61917191072E000C17
:101B0000880B990B6ECF372CE89434F82AE030E03C
:101B10009537C1F1572D597F352E903721F1E0F4DB
:101B2000983531F19F3661F1F601868197812B96C8
:101B3000CDBFDEBFDF91CF911F910F91FF90EF904E
:101B4000DF90CF90BF90AF909F908F907F906F90DD
:101B50005F904F903F900895983731F774FC05C01F
:101B600020E130E00FC0689434F8689432F8F8CF80
:101B700074FE03C0872D8660382E20E132E002C05B
:101B800028E030E0F80137FE10C061917191819139
:101B900091918F01FE0131965F01AF0128D48A191E
:101BA000A82E732CE89477F834CF6191719180E07E
:101BB00090E0EFCF782EBA2C74FE3ACFFE01EA0DFA
:101BC000F11D8081803309F040C0272D297E722EBF
:101BD00073FC0EC070FE4BC06A2CB51418F4650C73
:101BE0006B18B52C852D8B195B1408F480E0B80EAA
:101BF000B51408F03EC05B1874FE3DC0B60180E32A
:101C000090E0ACD372FE08C088E590E071FC02C0A1
:101C100088E790E0B601A2D3A614C8F1AA94B12C2B
:101C20004FEFA41AB40ACE0101963C01A80EB91ECA
:101C3000F50182915F01B60190E090D36A147B04B4
:101C4000B9F715CFB62C782EB9CF72FC02C0B39479
:101C5000BFCFB394B394BCCFB62C782EE9CEB601E7
:101C600080E290E07BD333943514C8F3BBCF3B2C98
:101C7000FBCF512CC1CF872D8678811569F280E288
:101C800071FC8BE277FC8DE2B60190E0C4CFB60127
:101C900080E390E063D36A94BFCF8FEF9FEF47CF8D
:101CA000CF92DF92EF92FF92FC016A017B0120FD4F
:101CB00008C023FD05C022FF02C0F382E282D18268
:101CC000C082FF90EF90DF90CF900895CF92DF9287
:101CD000EF92FF926B017C0183E044FD10C084E031
:101CE00046FD0DC0D601F701AA0FBB1FEE1FFF1F57
:101CF0001094D1F7CA0EDB1EEE1EFF1E81E0CC0C45
:101D0000DD1CEE1CFF1C8A95D1F7C701B601620FDE
:101D1000711D811D911DFF90EF90DF90CF90089570
:101D20000F931F93CF93DF938C01C801D4D2EC01A2
:101D300097FD06C0A3D2892BC1F7B801CE013ED3CF
:101D4000CE01DF91CF911F910F9108958F929F92B5
:101D5000AF92BF92CF92DF92EF92FF920F931F93B9
:101D6000CF93DF935C01162F4A01F22EB4D2EC011F
:101D70009927CB3221F08D97B9F46894F7F81A952A
:101D800071F480E0DF91CF911F910F91FF90EF9060
:101D9000DF90CF90BF90AF909F908F900895C50136
:101DA0009AD2EC0197FDEDCF0F2D0D7F8F2D807313
:101DB00081112CC0C03351F5EE24EA94E10EE114F8
:101DC00029F0C50188D2EC0197FF14C0C12CD12C99
:101DD000760107FF08C0F094E094D094C094C11C31
:101DE000D11CE11CF11C202FB701A601C40158DF52
:101DF00081E0C8CF8F7D0F2D883501F50264125028
:101E000029F3C50168D2EC0197FDE0CFC12CD12C9C
:101E100076012C2F20532830C8F004FD09C02A3049
:101E2000A8F006FF05C02F7D8FEE820F863068F088
:101E3000B501CE01C3D201FFA4CFCBCFF6FE03C0C4
:101E400002601E2DE3CF0261FCCF2750402FC70157
:101E5000B6013CDF6B017C0102601A9509F4B9CF31
:101E6000C50139D2EC0197FFD4CFB3CF4F925F9227
:101E70006F927F928F929F92AF92BF92CF92DF929A
:101E8000EF92FF920F931F93CF93DF93CDB7DEB7FF
:101E9000A097CDBFDEBF4C01B62E7A01CE010196D0
:101EA0003C0180E2F30111928A95E9F7F401B381D4
:101EB000890180E090E0A0E050E070E021E030E0B7
:101EC000F801B3FD4591B3FF4191642F8F0141119A
:101ED00017C000E010E0C801A096CDBFDEBFDF91C3
:101EE000CF911F910F91FF90EF90DF90CF90BF9017
:101EF000AF909F908F907F906F905F904F900895DC
:101F00004E3511F4009741F178171906FCF44D3560
:101F100051F14D32D9F4511511F1E62FE695E695C0
:101F2000E695E60DF72DF11D462F4770290102C0F9
:101F3000440C551C4A95E2F7A2015081452B408381
:101F40006A1779F06A1730F46F5FE7CF5111E5CF68
:101F5000A42FE3CF6150E1CF71E00196B1CF51E002
:101F6000FCCF50E0FACF511519F08E8180628E833C
:101F7000711561F0F3019E012F5D3F4F8081DF01FC
:101F8000319680958C93E217F307C1F7AA24A394A6
:101F9000C401A1D16C0197FD16C0E82FE695E69526
:101FA000E695E60DF72DF11D808190E096012770F2
:101FB000332702C0959587952A95E2F780FD06C0E4
:101FC000B401C601FBD1A11459F083CFE114F1048F
:101FD00019F0F701C1927F01BA94A12CB110D8CFAA
:101FE000E114F10409F477CFF701108274CF2F9236
:101FF0003F924F925F926F927F928F929F92AF9299
:10200000BF92CF92DF92EF92FF920F931F93CF93E5
:10201000DF9300D000D00F92CDB7DEB77C016C8388
:102020007D834B83252EFC0116821782312CF7010C
:102030004380EC81FD8143FC659043FE6190EC831D
:10204000FD836114F1F0862D90E018D1892B19F0F1
:10205000C70166DEECCFF5E26F120BC0EC81FD81AB
:1020600043FC759043FE7190EC83FD8385E278120A
:102070000BC0C70130D197FDA8C06816C1F2B701E7
:102080009DD1832D90E0A5C09AE2612C79120AC0FF
:10209000EC81FD8143FC759043FE7190EC83FD83E0
:1020A00066246394512C20ED270D2A3088F161FEBF
:1020B00041C0511431F3E8E67E1609F43EC0FCE657
:1020C0007F1609F447C07114E1F260EC74E280E01D
:1020D0009927472D50E0E5D0672B682B692B89F2B3
:1020E00000E010E060FC08C0AB80B22CF50101916B
:1020F00011915F01EB832B2CFEE67F1236C0F701B6
:102100004681578160E070E0262DC801C9DD8FCF80
:10211000689461F8652D70E080E090E040E2D6DDE3
:10212000562EEC81FD8143FC759043FE7190EC834B
:10213000FD83B9CF55245A94BECFEC81FD8143FC79
:10214000759043FE7190EC83FD8388E67812BBCFD7
:10215000689463F8689462F8EC81FD8143FC7590A3
:1021600043FE7190EC83FD83AECFF3E67F1218C07F
:1021700061FC02C055245394C701ADD089839A8372
:1021800089819A8197FD21C00115110519F0F80187
:1021900081938F015A9481F760FC49CF339447CFE4
:1021A0009BE579122CC02C813D81A801652DC701CA
:1021B0005DDE8C839D83EC81FD81EF2B69F7F70158
:1021C00083818073811509F45CCF8FEF9FEF31100D
:1021D00058CF2596CDBFDEBFDF91CF911F910F91D4
:1021E000FF90EF90DF90CF90BF90AF909F908F9037
:1021F0007F906F905F904F903F902F900895C70110
:102200008FDD97FDE2CFFFE67F16A9F180E7781614
:1022100048F494E6791661F0E9E67E1659F0689480
:1022200066F808C0F3E77F16A1F085E77812F7CFCC
:10223000689465F8262DA801652DC70187DD8115F5
:10224000BDCF0115110519F0F801C1928F015A9403
:1022500059F0C70140D06C0197FD06C00FD0892B03
:1022600081F3B701C601AAD00115110509F494CF75
:10227000F801108291CF689464F8DCCF911115C1F8
:10228000803219F089508550D0F70895FC010590EF
:10229000615070400110D8F7809590958E0F9F1F68
:1022A0000895FB018BBF0790041629F00020D9F791
:1022B000B001C0010895319780409927BF0108956A
:1022C000FC016150704001900110D8F78095909505
:1022D0008E0F9F1F08950F931F93CF93DF93EC01F1
:1022E0008B8180FF1DC086FF0EC08F7B8B838E810C
:1022F0009F8101968E839F838A8190E0DF91CF91A9
:102300001F910F91089582FF19C0E881F981908192
:10231000092F092E000C110B911105C080628B83CF
:102320008FEF9FEFEBCF3196E883F9838E819F810A
:1023300001968E839F83C8019927E0CFEA85FB85AC
:10234000CE0109958C0197FFF1CF8B810F3F1F4F75
:1023500019F490E1892BE3CF90E2FCCF0F931F9308
:10236000CF93DF93182F092FEB018B8181FD09C0DB
:102370001FEF0FEF812F902FDF91CF911F910F91C2
:10238000089582FF14C02E813F818C819D81281782
:1023900039073CF4E881F981CF010196888399835C
:1023A00010838E819F8101968E839F83E3CFE88582
:1023B000F985812F0995892BA1F3DACF9C01FB01C7
:1023C000838180FF11C086FD0FC02F3F320751F07F
:1023D00022838F7D806483838681978101978683A2
:1023E00097833327C90108952FEF3FEFFBCFFA0101
:1023F000AA27283051F1203181F1E8946F936E7F44
:102400006E5F7F4F8F4F9F4FAF4FB1E03ED0B4E034
:102410003CD0670F781F891F9A1FA11D680F791F75
:102420008A1F911DA11D6A0F711D811D911DA11D86
:1024300020D009F468943F912AE0269F1124301996
:10244000305D3193DEF6CF010895462F4770405D31
:102450004193B3E00FD0C9F7F6CF462F4F70405DE0
:102460004A3318F0495D31FD4052419302D0A9F73B
:10247000EACFB4E0A6959795879577956795BA9535
:10248000C9F700976105710508959B01AC010A2EFB
:1024900006945795479537952795BA95C9F7620FD2
:1024A000731F841F951FA01D0895992788270895DD
:1024B000DC0128ED209334006C930895F894FFCF4D
:0C24C0006364696E6F70737578585B0080
:1024CC0000000003000000009C04D0040000000089
:0424DC006C4120002F
:020000021000EC
:10800000E782D307EB820D83A107138333834F08E5
:1080100038836883AA056D839183B6059783BC83F3
:108020008905C1830000000000000A2D2D2D20537A
:10803000746174757320557064617465202D2D2DE5
:10804000002A72696E672A0A00436F6D6D616E6463
:10805000733A00202025730A00416C61726D207311
:10806000746F70706564004F7468657200496E7457
:1080700065726E616C2033326B487A0045787465A6
:10808000726E616C2033326B487A00525443204444
:108090006562756720496E666F3A0020205254432E
:1080A0002E434E543A2025750A0020205254432E68
:1080B0005045523A2025750A0020205254432E4341
:1080C00054524C413A203078253032580A00202052
:1080D0005254432E5354415455533A20307825304E
:1080E00032580A0020205254432E494E54435452D1
:1080F0004C3A203078253032580A00202052544320
:108100002E494E54464C4147533A20307825303260
:10811000580A0020205254432E434C4B53454C3AAE
:10812000203078253032580A002020496E7465725C
:108130007275707420636F756E743A20256C750AC1
:10814000002020436F6D6D616E64732071756575DD
:1081500065643A20257A750A002020436C6F636BB2
:1081600020736F757263653A2025730A000A3E20FA
:10817000000820080025313573202531397300555A
:108180006E6B6E6F776E20636F6D6D616E643A20FB
:1081900025730A00547970652048454C5020666F5D
:1081A0007220617661696C61626C6520636F6D6DD0
:1081B000616E6473000A3D3D3D20446967697461E6
:1081C0006C20416C61726D20436C6F636B203D3D90
:1081D0003D005254432D626173656420616C61728D
:1081E0006D20636C6F636B20696E697469616C6983
:1081F0007A656400417661696C61626C6520636FC9
:108200006D6D616E64733A0025643A25643A2564A5
:1082100000416C61726D2073657420746F2025308D
:1082200032643A253032643A253032640A00496EAD
:1082300076616C69642074696D6520666F726D612A
:10824000742E205573652048483A4D4D3A535300DB
:1082500054696D652073657420746F202530326415
:108260003A253032643A253032640A00437572721E
:10827000656E742054696D653A20253032643A2564
:108280003032643A253032640A00416C61726D20EC
:108290005365743A20253032643A253032643A25E9
:1082A00030326400205B54524947474552454421CF
:1082B0005D004E6F20616C61726D207365740053B8
:1082C00074617475733A20416C61726D696E6721D7
:1082D000212121005374617475733A2057616974C8
:1082E000696E672E2E2E0053455400534554204886
:1082F000483A4D4D3A53532020202D205365742089
:1083000063757272656E742074696D6500414C41CD
:10831000524D00414C41524D2048483A4D4D3A5340
:1083200053202D2053657420616C61726D20746937
:108330006D650053484F570053484F572020202069
:10834000202020202020202D20446973706C61792A
:108350002063757272656E742074696D6520616E3C
:108360006420616C61726D0053544F500053544F40
:108370005020202020202020202020202D20537439
:108380006F702063757272656E7420616C61726DBE
:10839000004445425547004445425547202020208F
:1083A0002020202020202D2053686F772052544316
:1083B00020646562756720696E666F0048454C50A1
:1083C0000048454C50202020202020202020202024
:1083D0002D2053686F7720746869732068656C700E
:0183E000009C
:00000001FF
