S01B00006F75742F64656661756C742F64656661756C742E7372656389
S11300000C947A000C9484000C9484000C94840066
S11300100C9484000C9484000C9484000C9484004C
S11300200C9484000C9484000C9484000C9484003C
S11300300C9484000C9484000C9484000C9484002C
S11300400C9484000C9484000C9484000C9484001C
S11300500C9484000C9484000C9484000C9484000C
S11300600C9484000C9484000C9484000C948400FC
S11300700C9484000C9484000C9484000C948400EC
S11300800C9484000C9484000C9484000C948400DC
S11300900C9484000C9484000C9484000C948400CC
S11300A00C9484000C9484000C9484000C948400BC
S11300B00C9484000C9484000C9484000C948400AC
S11300C00C9484000C9484000C9484000C9484009C
S11300D00C9484000C9484000C9484000C9484008C
S11300E00C9484000C9484000C9484000C9484007C
S11300F00C94840011241FBECFEFCDBFDFE7DEBF19
S11301000E949E000C943D020C9400006CE188E671
S113011090E00E943702089590E002C0959587957B
S11301206A95E2F780FD08C08FE39CE90197F1F737
S113013000C0000081E0089580E008950E948600D8
S1130140E0E6F4E08FEF81838683E0E2F4E08289E5
S11301508860828B85898860858B84E28283AA2467
S1130160A39403E06894BB24B1F8C0E2D4E0CC24A7
S1130170C394D12C0F2EF0E6EF2EF4E0FF2EF02DD9
S113018099249394812C3DC101E03BC1C6010B2C01
S113019002C0880F991F0A94E2F7F7018583EFEFF5
S11301A0E00FEA3008F0E3C0F0E0E752FF4F0C94B0
S11301B02E02E300F9000F01210137014D01610115
S11301C075018B01A101FFEF29E638E1F1502040D0
S11301D03040E1F700C00000F7018683FFEF29E615
S11301E038E1F15020403040E1F700C0000001E068
S11301F008C1FFEF24E33CE0F15020403040E1F738
S113020000C00000F70186834FEF84E39CE0415077
S113021080409040E1F700C0000002E0F2C0F6E543
S113022023E238E0F15020403040E1F7F7018683C3
S1130230E6E5F3E228E0E150F0402040E1F703E096
S1130240E0C0FFE72AE136E0F15020403040E1F71A
S113025000C00000F70186833FE74AE186E03150A1
S113026040408040E1F700C0000004E0CAC0FFEF56
S113027021EE34E0F15020403040E1F700C00000AE
S1130280F70186839FEFE1EEF4E09150E040F04007
S1130290E1F700C0000005E0B4C0F9EA21E134E070
S11302A0F15020403040E1F70000F701868329EA4D
S11302B031E144E0215030404040E1F7000006E0E5
S11302C0A0C0FCED2CE733E0F15020403040E1F7D2
S11302D000C0F70186838CED9CE7E3E081509040F9
S11302E0E040E1F700C007E08CC0FFE32DE033E01D
S11302F0F15020403040E1F700C00000F701868350
S1130300FFE32DE033E0F15020403040E1F700C03E
S1130310000008E076C0F2E726EB32E0F15020401E
S11303203040E1F700C000C0F701868342E786EB66
S113033092E0415080409040E1F700C000C009E0E5
S113034060C0FFEF20E732E0F15020403040E1F799
S113035000C00000F7018683EFEFF0E722E0E150F0
S1130360F0402040E1F700C000000AE04AC0F6E592
S113037023E238E0F15020403040E1F7F701868372
S1130380EFEFE00FEA3078F4F0E0E753FE4F0C941F
S11303902E02EE00040118012C01420157016B01E9
S11303A080019601AC0136E543E288E031504040DB
S11303B08040E1F726C0811108C0802F90E00196AB
S11303C00F5F0B97F4F00AE01CC0AA20B1F1C6013C
S11303D00B2C02C0880F991F0A94E2F7F701868359
S11303E0F6E0FB1508F0B394A92C27E0B21619F136
S11303F0C6010B2C02C0880F991F0A94E2F7F7017B
S11304008583888562E00E948C00182F888565E0CA
S11304100E948C001111CFCF882309F4B7CEE02FAE
S1130420E150FF0B1E161F060CF0AECE01503B9799
S113043044F30AE0E6CFA82CDBCFC6010B2C02C0A4
S1130440880F991F0A94E2F7F7018683A92CBB2031
S113045079F2BA94BB2061F2A82CCACFEE0FFF1F29
S11304600024001C0BBE0790F691E02D0994DC01DA
S111047028ED209334006C930895F894FFCF88
S9030000FC
