:1000000079C000009EC000009CC000009AC00000A3
:1000100098C0000016C1000094C0000092C000000B
:1000200090C00000B0C000008CC000008AC000007A
:1000300088C0000086C0000084C0000082C00000AC
:1000400080C000007EC000007CC000007AC00000BC
:1000500078C0000076C0000074C0000072C00000CC
:1000600070C000006EC000006CC000006AC00000DC
:1000700068C0000066C0000064C0000062C00000EC
:1000800060C000005EC000005CC000005AC00000FC
:1000900058C0000056C0000054C0000052C000000C
:1000A00050C000004EC000004CC000004AC000001C
:1000B00048C0000046C0000044C0000042C000002C
:1000C00040C000003EC000003CC000003AC000003C
:1000D00038C0000016C100003DC1000032C0000061
:1000E00030C000002EC000002CC000002AC000005C
:1000F00028C0000011241FBECFEFCDBFDFE7DEBF59
:1001000000C0209101102F7C206338ED34BF209374
:10011000011010E4A0E0B0E4E2EEF3E200E00BBF77
:1001200002C007900D92A431B107D9F721E4A4E1F0
:10013000B0E401C01D92AC36B207E1F78AD70C9447
:10014000E9115ECFE0E6F4E08FEF81838683E0E2A1
:1001500088E081838683E0E480EC81838683089550
:100160001092010AE9E0FAE08081808380E792E062
:100170008093260A9093270A8DE08093000A81E0FD
:1001800080930A0A08951F921FB61F9211242F937D
:100190008F939F9381E080930B0A809119409091F7
:1001A0001A4001968093194090931A4080911F4005
:1001B0008115A1F18091174090911840019680938C
:1001C0001740909318408091174090911840C29723
:1001D00038F0109217401092184088E0809327045E
:1001E0008091154090911640019680931540909310
:1001F00016408091154090911640883B9B4038F006
:10020000109215401092164081E0809314409F9107
:100210008F912F911F901FBE1F901895109217401D
:100220001092184088E080936604DACFE0E4F1E0B1
:10023000178280E090E88287938781E082838083C1
:1002400008951F921FB61F9211248F939F93AF930F
:10025000BF9381E08093430180911B4090911C40AB
:10026000A0911D40B0911E400196A11DB11D80932B
:100270001B4090931C40A0931D40B0931E40809162
:1002800026408F5F80932640809126408C33C0F0BB
:1002900010922640809125408F5F80932540809169
:1002A00025408C3368F010922540809124408F5F68
:1002B0008093244080912440883110F01092244093
:1002C000809120408115A9F0909124408091214097
:1002D00098130FC09091254080912240981309C037
:1002E0009091264080912340981303C081E0809331
:1002F0001F40BF91AF919F918F911F901FBE1F9084
:1003000018951F920F920FB60F9211240BB60F92F1
:100310002F933F934F935F936F937F938F939F930D
:10032000AF93BF93EF93FF93809160081AD2FF9130
:10033000EF91BF91AF919F918F917F916F915F915D
:100340004F913F912F910F900BBE0F900FBE0F90CA
:100350001F9018951F920F920FB60F9211240BB693
:100360000F922F933F934F935F936F937F938F934E
:100370009F93AF93BF93EF93FF93CF93DF930F922E
:10038000CDB7DEB7CE010196F5D18115C9F08981CF
:10039000809362080F90DF91CF91FF91EF91BF9111
:1003A000AF919F918F917F916F915F914F913F910D
:1003B0002F910F900BBE0F900FBE0F901F901895AE
:1003C000809165088F7D80936508E4CF009711F4D4
:1003D0000E948E0B0C94030B0895009711F40E9459
:1003E0008E0BFC01128213821482158208950097ED
:1003F00011F40E948E0BFC0186819781019708956C
:10040000FC01892B11F40E948E0B81E04281538103
:10041000248135814217530709F080E00895EF9257
:10042000FF920F931F93CF93DF937C018B01892B56
:1004300019F06230710510F40E948E0B88E090E094
:100440000E946D0AEC010097B9F3E882F9820E83ED
:100450001F83C3DFCE01D4DF811571F3CE01CDB789
:10046000DEB7E6E044C6EF92FF920F931F93CF935F
:10047000DF93EC017B01009739F0672B29F00881AD
:1004800019810115110511F40E948E0BB9DF81113C
:100490001AC08C819D81080F191FF8018081F70116
:1004A00080838C819D8101962E813F812817390799
:1004B00011F480E090E08C839D8380E090E0CDB7E4
:1004C000DEB7E6E014C68FEF9FEFF9CFFC01228183
:1004D00033812F5F3F4F868197818217930711F4F5
:1004E00020E030E081E0448155814217530709F054
:1004F00080E008950F931F93CF93DF938C010097B3
:1005000011F40E948E0BFC01C681D781DFDF8115BB
:1005100039F0CE010197DF91CF911F910F9108958E
:10052000F80182819381248135818217930718F025
:10053000821B930BF0CF8C0F9D1FFACFCF93DF93CD
:10054000EC01892B21F088819981009711F40E9498
:100550008E0B2A813B81820F931FFC016083CE01A9
:10056000B5DF2E813F81811551F08C819D810196EF
:100570008217930711F480E090E08C839D838A8139
:100580009B8101968217930711F480E090E08A83A3
:100590009B83DF91CF910895A3E0B0E0E1EDF2E01D
:1005A0008FC58A839B836983009731F0FC010081AA
:1005B00011810115110511F40E948E0B8A819B8116
:1005C00085DF81111EC0EA81FB8182819381080F42
:1005D000191F8981F8018083EA81FB8182819381DF
:1005E0000196268137812817390711F480E090E0C1
:1005F000EA81FB818283938380E090E02396E4E0AC
:1006000078C58FEF9FEFFACFEF92FF920F931F9372
:10061000CF93DF938C01EB017A01009739F020979B
:1006200029F0FC0180819181892B11F40E948E0BAD
:10063000C801E6DE811123C0C8015CDF8E159F056D
:10064000F0F0F80184819581EC0EFD1ECE15DF05DA
:1006500031F480E090E0CDB7DEB7E6E048C5F801C0
:10066000A081B181A80FB91F2C91299301962681F1
:1006700037812817390751F780E090E0E7CF8FEFF7
:100680009FEFE9CFA1E0B0E0E7E4F3E019C58B010B
:10069000009721F480E02196E4E02BC5672BD1F38D
:1006A000BE016F5F7F4FDFDE892BA1F78981F801E3
:1006B000808381E0F0CF682F80917D4090917E40D3
:1006C000009711F480E0089567DF892BD9F7E09156
:1006D0007940F0917A40309719F085818062858366
:1006E00081E008951F93CF93DF93182FC82FD92F40
:1006F0008881811519F0DFDF811106C08C2F811BE5
:10070000DF91CF911F9108952196F2CFBC01809186
:100710007B4090917C40B6CF0895A1E0B0E0E2E943
:10072000F3E0D0C480917D4090917E40009769F0C5
:100730005EDE898380917D4090917E40DBDE9981F1
:10074000981B892F2196E2E0D6C480E0FBCF8091F0
:100750007B4090917C40009711F0CCCE089580E0D2
:100760000895682F80917B4090917C40009709F01C
:1007700013CF0895BC0180917D4090917E4082CF3F
:100780000895AAE0B0E0E6ECF3E09AC449835A8306
:100790006B837C83813008F037C081E08093010453
:1007A00080E098E089879A87B801C901A5D520E043
:1007B00030E040E852E42ED66D837E838F839887A5
:1007C00069817A818B819C8197D520E030E040E877
:1007D00051E420D69B01AC016D817E818F8198858B
:1007E000F7D420E030E040E05FE38ED459D5E985CE
:1007F000FA856087718783E087838681806C868332
:10080000CF012A96E4E075C439F480934104E0E214
:10081000F8E0E987FA87C8CF823031F481E080932D
:10082000A10480E498E0BECF833031F481E080936E
:100830002104E0E6F8E0EDCF843031F481E08093EC
:10084000810480E898E0AECF19861A86ADCFEF928A
:10085000FF920F931F93E114F10489F19EE0E0E011
:10086000F0E4D70101900D929A95E1F78ADFF70144
:10087000848795878093794090937A4060E470E014
:100880008FEB90E4CCDD80937D4090937E4060E4DC
:1008900070E08FE790E4C3DD80937B4090937C40D1
:1008A000E0917940F0917A40309719F08581806825
:1008B0008583C7011F910F91FF90EF900895E0E0AD
:1008C000F0E4E0936841F0936941E0936641F0936E
:1008D0006741E0936A41F0936B417F01C7CFFC0110
:1008E00062830895FC01948195FFFDCF08950F93D5
:1008F0001F93CF93C82F8B01873069F460916A41B1
:1009000070916B4181E490E816D780E090E0CF9140
:100910001F910F9108958A3011F48DE0E8DFF801FE
:1009200004851585C801DEDFF801C283EECFFC0126
:10093000848187FFFDCF818182FF04C080818EEF9B
:100940009FEF089586FF04C080818FEF9FEF089589
:10095000808190E00895EF92FF920F931F93CF93C1
:10096000DF938C01E0917740F0917840309781F4EB
:10097000C7E2D0E4F80184859585D9DF8D3011F088
:100980008A30C1F48AE08883B801B1DFE7E2F0E49D
:10099000CF010196809377409093784080818A3090
:1009A00021F4109277401092784090E0CDB7DEB7F6
:1009B000E6E09DC3893091F090EE980F9F3510F0DE
:1009C000803A90F0F0E4C637DF0751F460916A4155
:1009D00070916B4181E490E8AED6CCCF80E2F2CF4B
:1009E0008993B80184DFC6CF853109F468C050F41B
:1009F000883069F08231A9F1833009F0BBCF8FEFE5
:100A00009FEFD4CF8731A1F08F3709F0B3CF80E4C7
:100A1000C732D80709F008F4ADCFB80188E067DF26
:100A2000B80180E264DFB80188E061DF2197A2CFDE
:100A30007E01E701E7E2EE16E0E4FE0609F008F4C5
:100A400099CFF70182917F01803209F493CFB801E9
:100A500088E04DDFB80180E24ADFB80188E047DF77
:100A6000E8CFB8018DE043DF87E2E82E80E4F82E7E
:100A7000EC16FD0608F07ECFB801F70181917F01E9
:100A800036DFF6CFB80188E032DFB80180E22FDF31
:100A9000B80188E02CDFF1E0EF1AF10887E2E816F0
:100AA00080E4F80609F070F790E4C732D90748F0FF
:100AB00087E290E48C1B9D0BC80FD91F5BCF7E0192
:100AC000EDCF80E090E0F8CF0F931F93CF93DF93AB
:100AD00089E490E870D6C0E0D0E803E510E88881AA
:100AE0009981892B29F4DF91CF911F910F9108955E
:100AF0008D818F938C818F931F930F9344D626966D
:100B00000F900F900F900F90EACF10921F408FEF31
:100B10008093660489E590E84EC608958BE890E8D6
:100B20004AD680914801909149019F938F938BE918
:100B300090E89F938F9327D680914A0190914B0123
:100B40009F938F938AEA90E89F938F931CD680910E
:100B500040011F928F9389EB90E89F938F9313D658
:100B6000809141011F928F938EEC90E89F938F9319
:100B70000AD6809142011F928F9384EE90E89F9352
:100B80008F9301D6809143011F928F938BEF90E852
:100B90009F938F93F8D5809147011F928F9383E1A4
:100BA00091E89F938F93EFD580911B4090911C40CB
:100BB000A0911D40B0911E40BF93AF939F938F9320
:100BC00089E291E89F938F93DED58DB79EB7829689
:100BD0008DBF9EBF80912041909121418BDC9F93DE
:100BE0008F9381E491E89F938F93CDD580914701B6
:100BF0000F900F900F900F90811591F08091470109
:100C0000823089F48CE790E89F938F9389E591E88F
:100C10009F938F93B8D50F900F900F900F900895DA
:100C20008DE690E8F1CF87E690E8EECF60E470E0E3
:100C300082E291E4F4DB8093204190932141109271
:100C4000FF400895A5E4B0E0E7E2F6E033C27E019C
:100C50008FEFE81AF80A0DE611E8C70157DD811198
:100C600045C08091204190912141CADB81113AC059
:100C7000670110E0BE016B5B7F4F80912041909136
:100C80002141F1DB892B59F426968FAD26978115EA
:100C900031F01F5FF60181936F011F3159F7F701A2
:100CA000E10FF11D10821115E9F06E01F1E2CF0E96
:100CB000D11CDF92CF928E010B5C1F4F1F930F93BD
:100CC00085E791E89F938F93FF92EF92A0D57C01E7
:100CD000CDBFDEBFBD2CA02ED12EF80118161906EF
:100CE0000CF472C0CB5BDF4FEAE0FDC18981982F25
:100CF000990F990B5BD589818A3011F08D30C1F540
:100D0000E091FF40E11509F4A8CFF0E0E050FF4B7F
:100D1000108280E0C82E81E4D82ED6018C918111FA
:100D200015C08091204190912141D0DB811106C0F6
:100D300060E080912041909121412EDC1092FF4093
:100D40001F930F9320D50F900F9087CF8091204154
:100D500090912141BBDB8111E4CF9FEFC91AD90AE1
:100D6000F6016291809120419091214115DCD5CF0F
:100D7000883011F08F3769F48091FF40811509F4B4
:100D80006CCF81508093FF4081E791E89F938F93D0
:100D9000D9CF90EE980F9F3508F05FCFE091FF40DC
:100DA000EF3108F05ACF91E09E0F9093FF40F0E0B2
:100DB000E050FF4B808351CF31969FE9980F9A31D5
:100DC00018F4DF0180528E9380818111F5CF00E00D
:100DD00010E8F801608171816115710579F4DF9285
:100DE000AF928FE791E89F938F93CDD484E991E8F8
:100DF000E2D40F900F900F900F9074CF8A2D9D2DFD
:100E000091D4892B71F4D8011296ED91FD918C2D1E
:100E10009B2DB1E0EB16F10411F484E791E80995FC
:100E200061CF0A5F1F4FD5CF0F931F93CF93DF93EF
:100E300085EB91E8C0D482ED91E8BDD484EF91E8D0
:100E4000BAD4C0E0D0E803E510E888819981892B05
:100E500061F48DE691E89F938F9395D40F900F9056
:100E6000DF91CF911F910F9108958D818F938C8188
:100E70008F931F930F9387D426960F900F900F9008
:100E80000F90E3CFA6E0B0E0E7E4F7E019C18B01F3
:100E90009E012F5F3F4F3F932F932E5F3F4F3F9316
:100EA0002F932E5F3F4F3F932F9328E032E83F93DD
:100EB0002F939F938F93ABD4CDBFDEBF0397B9F42D
:100EC0004D815E814831510590F42B813C812C335A
:100ED000310568F489819A818C33910540F4F801D9
:100EE00040832183828381E02696E4E002C180E092
:100EF000FBCFA3E0B0E0EEE7F7E0E4C0BE016F5F38
:100F00007F4FC0DF811519F1F89489819A81AB81F7
:100F10008093214090932240A093234081E08093CE
:100F2000204010921F4078948B811F928F938A816A
:100F30001F928F9389811F928F9381E192E89F93F3
:100F40008F9321D4CDBFDEBF2396E2E0D4C08EE2E2
:100F500092E831D4F9CFA3E0B0E0E0EBF7E0B2C023
:100F6000BE016F5F7F4F8EDF8115F1F0F8948981AC
:100F70009A81AB818093244090932540A093264092
:100F800078948B811F928F938A811F928F9389818E
:100F90001F928F9380E592E89F938F93F4D3CDBFF8
:100FA000DEBF2396E2E0A7C08EE292E804D4F9CF38
:100FB0004091264020912540809124401F924F93DC
:100FC0001F922F931F928F938CE692E89F938F939B
:100FD000DAD3809120402DB73EB7285F3F4F2DBF19
:100FE0003EBF811569F140912340209122408091BC
:100FF00021401F924F931F922F931F928F938AE845
:1010000092E89F938F93BFD380911F402DB73EB737
:10101000285F3F4F2DBF3EBF811539F084EA92E82B
:101020009F938F93B0D30F900F908AE090E0BED340
:1010300080911F40811541F08FEB92E8BCC3089569
:1010400082EB92E8B8D3F4CF84ED92E8F7CFB0CF3B
:10105000089588ED84BF8CE18093680073D8E6DD45
:10106000E12CF12C00E014E224EF30E0B70140E87D
:1010700055E283E0ECDB74D8D9D87894D5DE0EE65F
:1010800011E8E0DD809114408115D9F310921440ED
:101090008AE290E890D38CDF1F930F9374D30F9064
:1010A0000F90EFCF2F923F924F925F926F927F926D
:1010B0008F929F92AF92BF92CF92DF92EF92FF9268
:1010C0000F931F93CF93DF93CDB7DEB7CA1BDB0B14
:1010D000CDBFDEBF09942A88398848885F846E8432
:1010E0007D848C849B84AA84B984C884DF80EE804C
:1010F000FD800C811B81AA81B981CE0FD11DCDBF8E
:10110000DEBFED0108955058BB27AA270ED048C175
:1011100039D130F03ED120F031F49F3F11F41EF46C
:101120002EC10EF4E095E7FB24C1E92F4AD180F3EC
:10113000BA17620773078407950718F071F49EF5D4
:1011400062C10EF4E0950B2EBA2FA02D0B01B90150
:1011500090010C01CA01A0011124FF27591B99F02D
:10116000593F50F4503E68F11A16F040A22F232F39
:10117000342F4427585FF3CF469537952795A79589
:10118000F0405395C9F77EF41F16BA0B620B730B30
:10119000840BBAF09150A1F0FF0FBB1F661F771FA1
:1011A000881FC2F70EC0BA0F621F731F841F48F456
:1011B000879577956795B795F7959E3F08F0B3CFDC
:1011C0009395880F08F09927EE0F979587950895C6
:1011D0000CD0E6C0DED040F0D5D030F021F45F3F37
:1011E00019F0C7C0511110C1CAC0EBD098F39923B0
:1011F000C9F35523B1F3951B550BBB27AA276217DB
:101200007307840738F09F5F5F4F220F331F441F1F
:10121000AA1FA9F333D00E2E3AF0E0E830D0915057
:101220005040E695001CCAF729D0FE2F27D0660F44
:10123000771F881FBB1F261737074807AB07B0E883
:1012400009F0BB0B802DBF01FF2793585F4F2AF099
:101250009E3F510568F08DC0D7C05F3FECF3983ECC
:10126000DCF3869577956795B795F7959F5FC9F7F6
:10127000880F911D9695879597F90895E1E0660F7F
:10128000771F881FBB1F621773078407BA0720F0F8
:10129000621B730B840BBA0BEE1F88F7E095089561
:1012A00098D088F09F5790F0B92F9927B751A0F0A8
:1012B000D1F0660F771F881F991F1AF0BA95C9F7EA
:1012C00012C0B13081F09FD0B1E008959CC0672F6B
:1012D000782F8827B85F39F0B93FCCF3869577959A
:1012E0006795B395D9F73EF4909580957095619583
:1012F0007F4F8F4F9F4F0895E89409C097FB3EF4AE
:1013000090958095709561957F4F8F4F9F4F992352
:10131000A9F0F92F96E9BB279395F69587957795D0
:101320006795B795F111F8CFFAF4BB0F11F460FF90
:101330001BC06F5F7F4F8F4F9F4F16C0882311F0E8
:1013400096E911C0772321F09EE8872F762F05C0FC
:10135000662371F096E8862F70E060E02AF09A9597
:10136000660F771F881FDAF7880F9695879597F98C
:10137000089597F99F6780E870E060E008959FEF17
:1013800080EC089500240A9416161706180609061C
:10139000089500240A9412161306140605060895EB
:1013A000092E0394000C11F4882352F0BB0F40F473
:1013B000BF2B11F460FF04C06F5F7F4F8F4F9F4FB3
:1013C000089557FD9058440F551F59F05F3F71F035
:1013D0004795880F97FB991F61F09F3F79F087959C
:1013E0000895121613061406551FF2CF4695F1DF25
:1013F00008C0161617061806991FF1CF86957105B5
:10140000610508940895E894BB2766277727CB01E8
:1014100097F908950BD0C4CFB5DF28F0BADF18F0E4
:10142000952309F0A6CFABCF1124EECFCADFA0F3EE
:10143000959FD1F3950F50E0551F629FF001729F69
:10144000BB27F00DB11D639FAA27F00DB11DAA1F88
:10145000649F6627B00DA11D661F829F2227B00DD5
:10146000A11D621F739FB00DA11D621F839FA00D60
:10147000611D221F749F3327A00D611D231F849FB0
:10148000600D211D822F762F6A2F11249F57504007
:101490008AF0E1F088234AF0EE0FFF1FBB1F661FA2
:1014A000771F881F91505040A9F79E3F510570F05B
:1014B00060CFAACF5F3FECF3983EDCF3869577953B
:1014C0006795B795F795E7959F5FC1F7FE2B880F56
:1014D000911D9695879597F908950F931F93CF9334
:1014E000DF938230910510F482E090E0E091624158
:1014F000F091634120E030E0D901309799F4211553
:10150000310509F447C0281B390B24303105B8F5E3
:10151000DB0112968D919D91209761F18A839B83C7
:10152000FB010DC040815181028113814817590789
:10153000C0F089F4109751F012960D931C933296D7
:10154000CF01DF91CF911F910F91089500936241D8
:1015500010936341F4CF2115310551F04217530721
:1015600038F0A901DE019A01ED01DF01F801C5CFD4
:10157000BF01F9CF8093624190936341D1CFFB01CA
:10158000E20FF31F8193919322503109DB012D93D8
:101590003D93D6CF4091644150916541411551052D
:1015A00041F4409110405091114040936441509358
:1015B000654120910E4030910F402115310541F4D5
:1015C0002DB73EB76091124070911340261B370B28
:1015D0004217530708F0B4CF241B350B28173907DF
:1015E00008F4AECFBC016E5F7F4F2617370708F4B3
:1015F000A7CF640F751F6093644170936541FA0132
:10160000819391939DCF009709F463C0FC013297B9
:10161000128213822091624130916341D90140E0EE
:1016200050E02115310591F420813181820F931F03
:1016300020916441309165412817390709F063C052
:10164000E0936441F09365410895DB01AE17BF0755
:1016500008F040C012966D917D911497AD0161150F
:10166000710599F7DA011296ED93FD9314976D9138
:101670007D91CD01860F971FE817F90761F48081EE
:1016800091810296860F971FDA018D939D93828137
:1016900093818D939D93E0E0F0E0D90112968D91B6
:1016A0009D9114970097A1F58D919D918A0F9B1F95
:1016B00040916441509165414817590751F4309762
:1016C00051F510926241109263412093644130932E
:1016D00065410895A283B38360817181860F971F4E
:1016E000A817B90761F46E5F7F4F8D919D91860FAA
:1016F000971F808391838D919D9182839383411560
:10170000510509F0AFCFE0936241F0936341089532
:10171000F9019C01C2CF12821382D7CF81E090E001
:10172000F89457C6FB01DC018D91019080190110DE
:10173000D9F3990B0895EF92FF920F931F93CF93D4
:10174000DF937B01DB0113962C91EC0100E010E0AC
:1017500021FD0EC00FEF1FEF0EC02196D701189686
:10176000ED91FD91B7010995892B11F00FEF1FEF56
:1017700088818111F2CFC801DF91CF911F910F9124
:10178000FF90EF900895CF93DF93CDB7DEB7AE0112
:101790004B5F5F4FFA0161917191AF018091684198
:1017A000909169414FD0DF91CF9108956091684148
:1017B0007091694148C50F931F93CF93DF93E091D8
:1017C0006841F09169412381EC0100E010E021FDC6
:1017D0000EC00FEF1FEFC801DF91CF911F910F9146
:1017E000089521960995892B11F00FEF1FEF88813D
:1017F0006091684170916941DB011896ED91FD910E
:101800008111EFCF8AE00995892B29F3E2CFCF939D
:10181000DF93CDB7DEB72E97CDBFDEBF85E08C83DB
:101820008B899C8989839A83AE01495E5F4F6D895C
:101830007E89CE01019699D32E96CDBFDEBFDF9172
:10184000CF9108955F926F927F928F929F92AF9205
:10185000BF92CF92DF92EF92FF920F931F93CF939D
:10186000DF93CDB7DEB72C97CDBFDEBF5C016B0138
:101870007A01FC0116821782838181FFD4C12AE09C
:10188000522EF5012381F60123FD859123FF8191DD
:101890006F01811509F423C1853239F423FD959137
:1018A00023FF91916F01953221F4B50190E0CBD4E3
:1018B000E8CF30E0712C00E010E0103210F59B32E0
:1018C000C9F050F49032B9F09332C9F09E3261F50C
:1018D00016FD05C1106405C09D3279F0903399F46E
:1018E0001160F60123FD959123FF91916F019111F4
:1018F000E4CF23C012601460F4CF1860F2CF1061FF
:10190000F0CF17FD1AC080ED890F8A30F8F616FF68
:1019100005C0759C800D1124782EE3CF059D800DA8
:101920001124082F1062DDCF9C3611F41068D9CF36
:101930009C3409F43EC09836A1F2892F8F7D8554DE
:101940008330C8F1933609F45CC0933709F467C05B
:10195000933509F472C0943619F0993609F09BC09A
:10196000F70117FF91C061917191819191917F0170
:101970001F7697FF02C025D510682AE030E04E019F
:101980004FEF841A940AA401BBD4682E681816FF7E
:10199000DBC0812F8E7F671408F0D5C014FF23C1F0
:1019A00012FD17C11E7E972C812F867809F4D7C0AF
:1019B00015C131E096CF311501F1F8E0EF0EF11CC1
:1019C0008FE3898391E0692E712C4E018FEF881A85
:1019D000980A1F7713FD04C06016710408F43CC018
:1019E0006114710409F03EC0011509F44ACFB50134
:1019F00080E290E028D40150F7CF44E0E40EF11CDF
:101A0000DFCFF70180818983F2E0EF0EF11C81E0E6
:101A1000682E712C4E014FEF841A940ADACFF70129
:101A2000819091907F01672D70E016FD02C06FEFED
:101A30007FEFC401C4D33C01CCCFF70181909190DA
:101A40007F01672D70E016FD02C06FEF7FEFC401CC
:101A50009CD33C011068BECFB50180E290E0F3D387
:101A60000150BACFF40117FD859117FF81914F0105
:101A7000B50190E0E8D381E0011101C080E0081BCE
:101A8000F1E06F1A7108ACCF61917191872F880FC7
:101A9000880B982F6CCF9537C1F41F7E1C872AE0E6
:101AA00030E0FC85F7FF49C0F701619171918191A8
:101AB00091917F014E014FEF841A940AA40120D422
:101AC000682E68181C851F7762CF812F897F8C87CD
:101AD000903711F1D0F4983531F19F3659F1F50175
:101AE000868197812C96CDBFDEBFDF91CF911F916C
:101AF0000F91FF90EF90DF90CF90BF90AF909F90AD
:101B00008F907F906F905F900895983741F714FD04
:101B100006C020E130E0C5CF9C8590619C87EC85B4
:101B2000E460EC87F6CF14FF02C016601C8720E14A
:101B300032E0B7CF28E030E0B4CFF7016191719186
:101B400080E090E0B6CF182F962C14FF2DCFFE0129
:101B5000E60DF11D8081803309F03EC0197E13FD32
:101B60000EC010FF4BC0762C901618F4700E79182A
:101B7000902E802F8919091508F480E0980E901690
:101B800008F03EC0091914FF3DC0B50180E390E0A4
:101B90005AD312FF08C088E590E011FD02C088E723
:101BA00090E0B50150D36714C0F14E018FEF881A51
:101BB000980A6A94FE013296E60DF11D3F01F30189
:101BC00082913F01B50190E03ED368147904B9F7E2
:101BD0000BCF972C182FBBCF12FD02C09394BFCF11
:101BE00093949394BCCF972C182FDECEB50180E24E
:101BF00090E029D383948016C8F3BBCF892CFBCF08
:101C000000E0C1CF812F867871F280E211FD8BE276
:101C100017FD8DE2B50190E0C5CFB50180E390E0FE
:101C200012D37A94C0CF8FEF9FEF5CCF20FD09C015
:101C3000FC0123FD05C022FF02C073836283518330
:101C40004083089533E044FD10C034E046FD0DC0EC
:101C5000DB01FC01AA0FBB1FEE1FFF1F1094D1F781
:101C60006A0F7B1F8E1F9F1F31E0660F771F881F33
:101C7000991F3150D1F7620F711D811D911D08957B
:101C8000CF93DF9300D000D0CDB7DEB789839A839E
:101C900089819A819FD28B839C8397FD08C06DD2E6
:101CA000892BB1F769817A818B819C8111D38B81DA
:101CB0009C812496CDBFDEBFDF91CF910895AF9276
:101CC000BF92CF92DF92EF92FF921F93CF93DF9359
:101CD00000D000D0CDB7DEB75C016B8349835A8357
:101CE000122F78D2282F30E08B3221F02D3231059F
:101CF000C1F410682B8121502B8321110EC080E08C
:101D00002496CDBFDEBFDF91CF911F91FF90EF9062
:101D1000DF90CF90BF90AF900895C5015BD297FD43
:101D2000EECF312F3D7F3C83212F207371F580331F
:101D300061F5FB80FA9421F0C5014CD297FF16C0E3
:101D4000E12CF12C67018C8187FF08C0F094E094AE
:101D5000D094C094C11CD11CE11CF11C2C81A601A3
:101D6000B70189819A8162DF81E0CACF282F2F7D58
:101D7000283521F512641C838B8182508B83811559
:101D8000F9F2C50127D297FDDBCFE12CF12C6701D9
:101D900020ED280F2830D8F03C8134FD09C02A30CE
:101DA000B0F036FF05C02F7D3FEE320F363070F0B9
:101DB000B5018ED28C8181FFA2CFC5CF16FF04C0A2
:101DC00012601C83FB82E1CF1261FBCF27504C8154
:101DD000B601C70137DF6B017C012C8122602C83A7
:101DE0003B8131503B83311509F4ADCFC501F2D1B0
:101DF00097FFCECFA8CF6F927F928F929F92AF9294
:101E0000BF92CF92DF92EF92FF920F931F93CF93E7
:101E1000DF93CDB7DEB7A097CDBFDEBF5C01962EB6
:101E20007A016E018FEFC81AD80A80E2F60111928A
:101E30008A95E9F7F5018380890140E050E0B0E040
:101E400020E0A0E061E070E0F80183FC959183FE62
:101E50009191892F8F01911115C000E010E0C80108
:101E6000A096CDBFDEBFDF91CF911F910F91FF9064
:101E7000EF90DF90CF90BF90AF909F908F907F902A
:101E80006F9008959E3519F44115510529F1A41755
:101E90001506E4F49D3541F19D32C1F4211501F19F
:101EA000E82FE695E695E695EC0DFD2DF11D282F22
:101EB00027703B0101C0660C2A95EAF790819629AC
:101EC00090838B1779F030F48F5FEACF2111E8CF40
:101ED000B92FE6CF8150E4CFA1E04F5F5F4FB4CF81
:101EE00021E0FBCF20E0F9CF211519F08E8180622F
:101EF0008E83A11561F0F6019E012F5D3F4F808119
:101F0000DF01319680958C93E217F307C1F788249F
:101F10008394C5015FD197FD14C0E82FE695E6953F
:101F2000E695EC0DFD2DF11D208130E0AC014770F0
:101F300002C0359527954A95E2F720FD05C0B50109
:101F4000C7D1811459F089CFE114F10419F0F701D8
:101F500081937F019A94812C9110DBCFE114F104DD
:101F600009F47DCFF70110827ACF6F927F928F9222
:101F70009F92AF92BF92CF92DF92EF92FF920F9318
:101F80001F93CF93DF935C01EB01742E652EFC0150
:101F900016821782C12CF501F380FE01F3FC059136
:101FA000F3FE0191EF010115D1F0802F90E0E5D013
:101FB000892B19F0C50164DEEECF053241F4FE0134
:101FC000F3FC1591F3FE1191EF01153259F4C5019F
:101FD00001D197FD8AC00817F1F2B50179D18C2D96
:101FE00090E087C000E01A3231F4F3FC1591F3FE63
:101FF0001191EF0101E0D12C20ED210F2A3060F189
:1020000001FF39C0D11459F3183609F437C01C3612
:1020100009F43EC0111519F366ED73E280E09927CB
:10202000412F50E0BDD0672B682B692BC1F2E12C0A
:10203000F12C00FD06C0E72DF62DE190F1907E2EEB
:102040006F2E1E3669F5F5014681578160E070E01C
:10205000202FC701EBDD9FCF02606D2D70E080E087
:1020600090E040E2EFDDD62EFE01F3FC1591F3FE89
:102070001191EF01C1CFDD24DA94C6CFFE01F3FC4C
:102080001591F3FE1191EF01183609F0C3CF0860E6
:102090000460FE01F3FC1591F3FE1191EF01BACF3C
:1020A0001336A1F401FD02C0DD24D394C50192D002
:1020B00097FD1BC0E114F10419F0F70181937F0132
:1020C000DA94A1F700FD67CFC39465CF1B3501F506
:1020D0009E01A7016D2DC5018EDEEC01892B91F7C4
:1020E000F5018381807309F47ACF8FEF9FEFC110E0
:1020F00076CFDF91CF911F910F91FF90EF90DF90FE
:10210000CF90BF90AF909F908F907F906F900895E9
:10211000C501B6DD97FDE9CF1F3669F130F41436FD
:1021200041F0193639F0006405C0133791F01537C6
:10213000D1F70062202FA7016D2DC501C0DD8115EB
:10214000CECFE114F10419F0F70181927F01DA9406
:1021500059F0C5013FD04C0197FD06C00ED0892B28
:1021600081F3B501C401B4D0E114F10409F4AACF9C
:10217000F7011082A7CF0061DDCF91111FC180321E
:1021800019F089508550D0F70895FC0105906150F1
:1021900070400110D8F7809590958E0F9F1F08957D
:1021A000FB018BBF0790041629F00020D9F7B0017E
:1021B000C0010895319780409927BF010895FC011F
:1021C0006150704001900110D8F7809590958E0F66
:1021D0009F1F0895CF93DF93EC012B8120FF18C040
:1021E00026FF0CC02F7B2B838E819F8101968E83CF
:1021F0009F838A8190E0DF91CF91089522FF16C0DE
:10220000E881F9813081832F311105C020622B8351
:102210008FEF9FEFF0CF3196E883F9832E813F81D6
:102220002F5F3F4F2E833F8390E0E5CFEA85FB850C
:10223000099597FFF3CF2B81019619F480E1282BA4
:10224000E6CF80E2FCCF1F93CF93DF9300D00F92B5
:10225000CDB7DEB7182F99836A837B83DB01139692
:102260008C9181FD0CC01FEFBFEFB983812F998145
:102270000F900F900F90DF91CF911F91089582FFE3
:102280001BC0EA81FB8126813781848195812817D3
:10229000390754F40190F081E02DCF010196AA8115
:1022A000BB818D939D931083EA81FB818681978109
:1022B000019686839783DACFAA81BB811896ED9128
:1022C000FD911A97BD01812F0995892B69F3CBCF19
:1022D000FB012381322F3174313079F48F3F98071D
:1022E00071F082832F7D20642383268137812150E2
:1022F00031092683378390E008958FEF9FEF08958B
:10230000FA01AA27283051F1203181F1E8946F9326
:102310006E7F6E5F7F4F8F4F9F4FAF4FB1E03ED0CC
:10232000B4E03CD0670F781F891F9A1FA11D680F6A
:10233000791F8A1F911DA11D6A0F711D811D911D9D
:10234000A11D20D009F468943F912AE0269F112412
:102350003019305D3193DEF6CF010895462F477076
:10236000405D4193B3E00FD0C9F7F6CF462F4F70D1
:10237000405D4A3318F0495D31FD4052419302D02F
:10238000A9F7EACFB4E0A6959795879577956795D5
:10239000BA95C9F700976105710508959B01AC01D5
:1023A0000A2E06945795479537952795BA95C9F7FC
:1023B000620F731F841F951FA01D089599278827FA
:1023C000089590958095709561957F4F8F4F9F4FA1
:1023D0000895F894FFCF6364696E6F7073757858D1
:0223E0005B00A0
:1023E20000000003000000007704AB0400000000BE
:0423F2006C4120001A
:020000021000EC
:10800000E782AB07EB820D8379071383338327085D
:108010003883688385056D8391838E059783BC8340
:108020006405C1830000000000000A2D2D2D20539F
:10803000746174757320557064617465202D2D2DE5
:10804000002A72696E672A0A00436F6D6D616E6463
:10805000733A00202025730A00416C61726D207311
:10806000746F70706564004F7468657200496E7457
:1080700065726E616C2033326B487A0045787465A6
:10808000726E616C2033326B487A00525443204444
:108090006562756720496E666F3A0020205254432E
:1080A0002E434E543A2025750A0020205254432E68
:1080B0005045523A2025750A0020205254432E4341
:1080C00054524C413A203078253032580A00202052
:1080D0005254432E5354415455533A20307825304E
:1080E00032580A0020205254432E494E54435452D1
:1080F0004C3A203078253032580A00202052544320
:108100002E494E54464C4147533A20307825303260
:10811000580A0020205254432E434C4B53454C3AAE
:10812000203078253032580A002020496E7465725C
:108130007275707420636F756E743A20256C750AC1
:10814000002020436F6D6D616E64732071756575DD
:1081500065643A20257A750A002020436C6F636BB2
:1081600020736F757263653A2025730A000A3E20FA
:10817000000820080025313573202531397300555A
:108180006E6B6E6F776E20636F6D6D616E643A20FB
:1081900025730A00547970652048454C5020666F5D
:1081A0007220617661696C61626C6520636F6D6DD0
:1081B000616E6473000A3D3D3D20446967697461E6
:1081C0006C20416C61726D20436C6F636B203D3D90
:1081D0003D005254432D626173656420616C61728D
:1081E0006D20636C6F636B20696E697469616C6983
:1081F0007A656400417661696C61626C6520636FC9
:108200006D6D616E64733A0025643A25643A2564A5
:1082100000416C61726D2073657420746F2025308D
:1082200032643A253032643A253032640A00496EAD
:1082300076616C69642074696D6520666F726D612A
:10824000742E205573652048483A4D4D3A535300DB
:1082500054696D652073657420746F202530326415
:108260003A253032643A253032640A00437572721E
:10827000656E742054696D653A20253032643A2564
:108280003032643A253032640A00416C61726D20EC
:108290005365743A20253032643A253032643A25E9
:1082A00030326400205B54524947474552454421CF
:1082B0005D004E6F20616C61726D207365740053B8
:1082C00074617475733A20416C61726D696E6721D7
:1082D000212121005374617475733A2057616974C8
:1082E000696E672E2E2E0053455400534554204886
:1082F000483A4D4D3A53532020202D205365742089
:1083000063757272656E742074696D6500414C41CD
:10831000524D00414C41524D2048483A4D4D3A5340
:1083200053202D2053657420616C61726D20746937
:108330006D650053484F570053484F572020202069
:10834000202020202020202D20446973706C61792A
:108350002063757272656E742074696D6520616E3C
:108360006420616C61726D0053544F500053544F40
:108370005020202020202020202020202D20537439
:108380006F702063757272656E7420616C61726DBE
:10839000004445425547004445425547202020208F
:1083A0002020202020202D2053686F772052544316
:1083B00020646562756720696E666F0048454C50A1
:1083C0000048454C50202020202020202020202024
:1083D0002D2053686F7720746869732068656C700E
:0183E000009C
:00000001FF
